:020000040800F2
:10000000300400203D2300080523000807230008D2
:10001000092300080B2300080D230008000000003E
:100020000000000000000000000000000F23000896
:100030001123000800000000132300081523000806
:10004000592300085D230008612300086523000888
:10005000692300086D230008712300087523000838
:10006000792300087D2300088123000885230008E8
:10007000892300088D230008912300089523000898
:10008000992300089D230008A1230008A523000848
:10009000A9230008AD230008B1230008B5230008F8
:1000A000B9230008BD230008C1230008C5230008A8
:1000B000C9230008CD23000800000000D123000858
:1000C000D52300080000000000000000D92300082C
:1000D00000000000DD230008E1230008000000000C
:1000E000E5230008E9230008ED2300082DE9F04D81
:1000F00016461F46044626F0000A37F0004008BFA7
:10010000BAF1000F8AB00D4600F056830020DFF8E8
:10011000B41622462B4600F095FB00F04D83DFF825
:10012000A81600F08FFB06D178004015401C02D1C4
:10013000390300F0418368004015401C00F05882EC
:1001400024F0000035F0004108BF002800F0508284
:1001500078004015401C00F04B82BB464FEA4B0133
:1001600051EADA714FEA4A0008BF00281CD040F279
:100170003342A2EB5150352804DB0AF0000A0BF0A1
:10018000004B11E0202805DD20382BFA00F101FAA0
:1001900000FB00E002D14FF0000A05E00028C4BFD8
:1001A0002AFA00F101FA00FAE80F22D0390007D547
:1001B00000224FF00043921BBB41CDE9002301E038
:1001C000CDE9006759460029504605D500224FF079
:1001D0000043101A63EB0101DDE900238B4208BFE5
:1001E000824206D0AFF300804FF0FF306FF0004145
:1001F000E4E225F00041B1F5801F24F000000CD2AC
:100200000022002908BF0028029211D002AA294624
:1002100000F028FB04460D460AE0DFF8B02502EBAB
:100220001150DFF8AC1502900D40DFF8A8150D4312
:10023000E80F08BF00223DD0594650464B0043EA24
:10024000D0734200002B08BF002A25F0004517D0CC
:1002500040F2344CACEB5352352A04DB00F0000082
:1002600001F000410CE0202A03DD203AD14091400A
:1002700000E001D1002003E0002AC4BFD04090403C
:10028000BBF1000F06D500224FF00043B2EB0A0A83
:1002900063EB0B0B002905D500224FF00043101A29
:1002A00063EB01018B4508BF824502D10021059116
:1002B00001E0012205920298012833D12046294607
:1002C000DFF81425DFF8143500F004FB2AD24800CB
:1002D0004FF00008400DC246DFF8E8B400F101021B
:1002E00012D0002A10DD40F2FF70824207DBDFF8F7
:1002F000F01405F00043002443EA010533E06FF3F6
:100300001E5141EA02552EE024F0000035F0004174
:1003100008BF002827D00122294600F009FB044627
:100320000D4620E00020DFF8BC1422462B4600F0EA
:100330009DFBDFF8A0B400225B4600F069FC00F0F2
:1003400025FDA0F12008404600F03EFD0022DFF828
:10035000983400F08BFB00225B4600F059FC82468B
:100360008B464FEA48182046294652465B4600F025
:100370003DFDCDE9000152465B462046294600F08E
:1003800047FC02460B46DDE9000100F0A1FDCDE986
:100390000601DDE9062300F069FBCDE900015246C4
:1003A000204629465B4600F021FDDDE90023044696
:1003B0000D46DFF83804DFF8381400F057FBDFF89B
:1003C0003424DFF8343400F023FCDDE9002300F0AE
:1003D0004DFBDFF82824DFF8283400F019FCDDE9B4
:1003E000002300F043FBDFF81C24DFF81C3400F08E
:1003F0000FFCDDE9002300F039FBDFF81024DFF803
:10040000103400F005FCDDE9002300F02FFBDFF8DD
:100410000424DFF8043400F0FBFBDDE9002300F0E6
:1004200025FBDFF8F823DFF8F83300F0F1FBCDE926
:10043000080152460020DFF88C135B4600F0D6FC22
:100440000B465A00520D02F1010C15D0BCF1000F01
:1004500012DD40F2FF72944508DBDFF8842301F0DF
:1004600000404FF0000A40EA020B10E06FF31E5309
:1004700043EA0C5B82460AE020F0000231F00043C0
:100480000EBF002A012200F053FA82468B46DDE9B6
:100490000023DDE9080100F0E9FA22462B4600F0CE
:1004A000A5FC52465B4600F0B3FBDDE9062300F0F5
:1004B000DDFADFF800E3FE440EF2FA2EC644CDF872
:1004C00004E022462B4600F0A3FB044602980D46AA
:1004D00000F07AFCDDF804E0DEE9002300F098FB90
:1004E000CDE906012246DFF83C03DFF83C132B463A
:1004F00000F0BCFADDE9062300F08AFB32463B46F9
:1005000000F0B4FA0022DFF8243300F0E3F966D3F8
:100510000122DFF81C3300F0FFFD5DD9CA0F1ABFBE
:100520000022C44BAB4B00F073FB00F02FFC002209
:10053000A44BDFF804A3DFF804B3CDE9032380461E
:10054000CDF8008032463B462046294600F08EFA20
:10055000044601988446D0E902230D46DCE90401F3
:1005600000F056FB32463B4600F080FA52465B46AE
:1005700000F07CFA22462B4600F04AFBCDE901014F
:10058000DDE906453046394622462B4600F06EFA34
:1005900004460D46404600F017FC02460B46204636
:1005A000294600F023FC52465B4600F05FFADDE985
:1005B000012300F02DFBDDE9032300F0C5FD20F051
:1005C000000631F0004708BF002E08D04A0052153F
:1005D000521C06D10B0304D10020814901E0002008
:1005E0000021059A002A00F0E98081F00041E5E051
:1005F00068004015401C04D1290302D0204629463A
:10060000DCE078004015401C04D1390302D03046AC
:100610003946D3E0790001204915491C7CD03B467E
:10062000590051EADA7B4FEA4A0104BF0029CDE9BB
:100630000067324619D040F23341A1EB5B513529B6
:1006400004DB02F0000203F000430CE0202903DD8C
:100650002039CB408B4000E001D1002203E000298B
:10066000C4BFCA408A40CDE900233B0008D5002121
:100670004FF0004B8A1B6BEB0303CDE9022301E033
:10068000CDE90263DDE90023002B05D500214FF001
:1006900000468A1A66EB0303DDE902AB9B450CBFFB
:1006A00092450020DDE90023590041EAD27651004D
:1006B000002E08BF002917D040F23441A1EB56515B
:1006C000352904DB02F0000203F000430CE020298E
:1006D00003DD2039CB408B4000E001D1002203E054
:1006E0000029C4BFCA408A40B0B1DDE90001002939
:1006F00005D500264FF0004B301A6BEB0101002BA3
:1007000005D500264FF0004BB21A6BEB030399425C
:1007100006BF90420020012069004915491C07D1FD
:100720002A0305D1EC0F1BD1FE0F3FD0002045E07E
:1007300079004915491C1BD13A0319D125F0004114
:10074000B1F5801F24F000001DD20022002908BF4F
:10075000002800921BD06A46294600F083F816E074
:10076000FE0F02D1002822D01DE0002826D006E08E
:10077000002814BFEC0F0024FE0F13D17CB1002021
:100780004FF000411AE0114A02EB11500090FE0FA9
:10079000009802D1002809DC01E0002806DD0020D5
:1007A00000210BE014B10020254907E000200C498E
:1007B00004E000BF9C120000002002490AB0BDE81E
:1007C000F08D00000000F03F0000F0BF02FCFFFFD2
:1007D000FFFF0F800000E03FCD3B7F669EA0E63F1D
:1007E0000000F07F000050400000903FF7DE29BF7E
:1007F000D8F8C23FF4B3FECC1A99C33F62CB68D994
:100800006F46C73FC6C912DAC471CC3F4AE98A9421
:100810002449D23FF75F97999999D93FBC555555CF
:100820005555E53FFE822B654715F73F0000E0C0B8
:100830000000E0400000E0BFEF39FAFE422EE63F44
:100840000000F0FF90420CD141EA030C50EA4C0C3E
:1008500007D0994205D14FF4001C1CEB410F38BF63
:100860008942704710B5144600F002F8226010BDAE
:10087000C1F30A5343B14A0012F5001F28D2A3F274
:10088000FE32A1EB0251704750EA410C20D001F03A
:10089000004C31EA0C01B1FA81F204BFB0FA80F3E6
:1008A000D2180B3AB2F120032CBF00FA03F19140A9
:1008B00041EA0C013EBFC2F1200C20FA0CF31943AF
:1008C0009040524240F2FD33D21A01EB035170477F
:1008D000002270474FF4001C1CEB410F94BF1CEB2F
:1008E000430F09E041EA030C50EA4C0C52EA0C0CAD
:1008F00003D2994208BF9042704714BF8B42824294
:10090000704730B40EE00268436802440830DC07E8
:1009100044BFA9F10104E31852F8045B43F8045BF7
:10092000091FF9D150F8041B0029ECD130BC7047E5
:10093000124254D440F2FF7C1CEA11530FD063459D
:1009400031D09B1863453CBF01EB0251704701F069
:10095000004141EA0C510020AFF30080704750EA9B
:10096000410320D001F0004C91EA0C011CD0B1FAF7
:1009700081F30B3B9A420DD9D21A994051EA0C01EE
:10098000C3F1200C20FA0CFC61449840531C40F247
:10099000FF7CD7E7914041EA0C01C2F1200C20FA1C
:1009A0000CF3194390407047B0FA80F31533202BB5
:1009B000E0D3202AEED3203A203B9A4209D9D21A1A
:1009C00000FA03F141EA0C010020531C40F2FF7CC5
:1009D000B8E700FA02F141EA0C01002070475242E8
:1009E00040F2FF7C1CEA11530DD06345DBD0B2EB23
:1009F000030C3CBFA1EB025170470CF1010221EA4C
:100A0000035141F4801150EA410CCCD001F0004C6C
:100A1000352A27DC30B481EA0C01B2F1200309DA6F
:100A2000C2F12003044601FA03F5D0402843D14027
:100A30009C400CE0C3F12002450020FA03F418BFEB
:100A400044F0010421FA03F091400C43002174F1B9
:100A5000004550F1000051EB0C01244230BC7FF402
:100A60007BAF70476146002076E70000B0B581EAB1
:100A7000030C0CF0004C40F2FF7515EA11541DBF39
:100A800015EA1357AC42AF4239E0E41923EA455363
:100A900043F48013C90241F0004141EA505EC702AD
:100AA0001100A7FB020200284FF00000EEFB01201E
:100AB0004FF00001E3FB072118BF42F0010240188C
:100AC00000214941E3FB0E01A4F580640F0302D22B
:100AD00052004041494154F101046CDD470872F174
:100AE000004250F1000051EB0451A1F580115CBFB0
:100AF00041EA0C01B0BD4CEA05510020B0BD05EA49
:100B00001357AC4214BFAF4241E050EA410E1CBF44
:100B100052EA430E02E061460020B0BD24423C444C
:100B20001BD15FEA070EF6D0090302BF0146002081
:100B3000AEF1140EB1FA81F7AEEB070401FA07FE2D
:100B40000C37C7F1200100FA07F7C8404EEA000E43
:100B500023EA455343F48013A2E733F00043B3FA8A
:100B600083F704BFB2FA82FE77440B3FE41BB7F170
:100B7000200E2FBF02FA0EF3BB40C7F1200E22FA5F
:100B80000EFE38BF43EA0E03BA40641C82E750EA07
:100B9000410E14BF52EA430E6FF000014FF40017EC
:100BA00017EB430F8ABF194617EB410FB5E74CEA25
:100BB00005510020B0BDD4F10104B4F120070FDAD3
:100BC000C4F12007520828BF42F0010210FA07F5CD
:100BD00001FA07F7E1BF2A43E0403843E1400FE064
:100BE000352C98DCC7F1200452EA400220FA07F2C3
:100BF00018BF42F0010231FA07F0A1400A43002178
:100C000072F1004250F1000051EB0C01B0BD000048
:100C100070B44FF0004591EA030F40F1EF806B4054
:100C2000841A71EB030604D26E40001BB141121905
:100C300073414FF4001C1CEB410F34BF7CEB4306A7
:100C400083E00C0DA4EB1356362E00F37C80012EAE
:100C500045EAC32341DC43EA525312BFD202920257
:100C60005B08240545EAC12141EA5051D2EBC0207E
:100C7000994125D407D1B0FA80F610FA06F162D076
:100C80000020203608E0B1FA81F6B140C6F120021A
:100C900020FA02F21143B0404FEAF474B4EB465428
:100CA00034F001064FEA74040AD8D6F50016760D22
:100CB00004F00044F04061FA06F25040F140484030
:100CC000C00A40EA415021F0004128BF5FEA5005C8
:100CD00050F1000044EBD12135E0DB0A45EAC121A7
:100CE000C90AB6F120050EDD42EA0242120CC5F136
:100CF000200603FA06F6EB4042EA06056D429841EB
:100D000061F100010DE062FA06F5F240554063FA28
:100D100006FC82EA0C02F3405A406D42904161EBBE
:100D2000030111F4801F05D1641E620502D06D001D
:100D30004041494121F48011430875F1004350F1CD
:100D4000000041EB045170BC70471CEB410F15D201
:100D500023F0004352EA43060BD04FEA4C0CBCEBA5
:100D6000410F04D80C0D661E342EB7DDEBE7801A58
:100D7000994150EA410608BF0021E4E708BF1CEB97
:100D8000430F28BF6FF00001DDE70000C1F30A53F5
:100D900040F2FE329B1A14DDD3F120034FEAE172D8
:100DA00008DDC90241EA505141F00040D8408018A6
:100DB0005040704703F2E13010B1D24382F000405E
:100DC0007047002070470000C11768B14840401AC2
:100DD000B0FA80F29040D21CC907C2F5846241EAA1
:100DE000025202EBD02140057047000070B44FF072
:100DF000004591EA030F7FF513AF6B40841A71EB46
:100E0000030603D2001BB141121973414FF4001CB9
:100E10001CEB410F34BF7CEB430442E00C0DA4EB10
:100E20001356352E4FDC45EAC323DB0A45EAC121C0
:100E3000C912B6F120050DDD63FA05F6EB4086EA2E
:100E40000305124218BF45F00105C01851F1000119
:100E50000CD213E062FA06F5F2405540F3415A40D5
:100E6000B340F3405A408018594107D349085FEA1C
:100E700030005FEA350528BF45F0010501F5801116
:100E8000420875F1004250F1000041EB04514E0060
:100E900016F5001F70BC38BF70470020090D09050A
:100EA00070471CEB410F10D252EA43060BD0BCEB4B
:100EB000410F05D80C0DAB43661E342EB6DD02E0A3
:100EC000AB438018594170BC704770BC704700003C
:100ED000F0B540F2FF7581EA030C0CF0004C15EA06
:100EE00011541DBF15EA1357AC42AF42E5E0BC41B7
:100EF000C1F31301C3F31303801A994143F4801320
:100F000004D2641E4000494180185941C90241EA97
:100F10005051B1FBF3F603FB1611A2FB0675D7EB9C
:100F2000C020A94102D2761E80185941C90241EA67
:100F30005051B1FBF3FE03FB1E11A2FB0E75D7EB64
:100F4000C020A94103D2AEF1010E80185941890297
:100F500041EA9051760546EA8E2EB1FBF3F603FB8B
:100F60001611A2FB0675D7EB8020A94102D2761E8E
:100F700080185941C90241EA50514EEA060EB1FBB0
:100F8000F3F603FB1611A2FB0675D7EBC020A941AF
:100F900002D2761E80185941C90241EA5051B1FB74
:100FA000F3F703FB1711A2FB0735D3EBC020A941D0
:100FB00067F100070CBF004247F0010766F3D52731
:100FC0004FEA1E31B80814F5806412DDBD0775F1D3
:100FD000004250EB0E5051EB045111F5801F5CBFE5
:100FE00041EA0C01F0BD4CF07F6141F0E04100208E
:100FF000F0BDBD076D0840EA0E5041F48011D4F1F8
:101000000104B4F120060ADAC4F120060200E0402F
:1010100001FA06F3E1401843B24015430EE0342CC8
:1010200013DCC6F1200445EA40056D0820FA06F2FB
:10103000154321FA06F0A1400D43002175F100424D
:1010400050F1000051EB0C01F0BD00205FEA0C01F3
:10105000F0BDCFB992185B41B3FA83F704BFB2FA7F
:1010600082F6BF190B3FB7F120062FBF02FA06F335
:10107000BB40C7F1200622FA06F638BF3343BA4018
:101080001CB1E419641E33E77F4231F00041B1FA2C
:1010900081F404BFB0FA80F6A4190B3CB4F1200629
:1010A0002FBF00FA06F1A140C4F1200620FA06F68F
:1010B00038BF3143A0403C1B1AE7AC421ABF05EAD7
:1010C0001357AF4212E050EA41061CBF52EA4306F2
:1010D000BFE750EA4107304661461CBF41EA05516F
:1010E000F0BD52EA430C08BFC143F0BD00204FF4ED
:1010F000001616EB410F98BF16EB430F08BF16EB17
:10110000410F24BFC14305E016EB430F0CBF6146FE
:101110004CEA0551F0BD00004FF4001C1CEB410FE0
:1011200094BF1CEB430F09E041EA030C50EA4C0C5E
:1011300052EA0C0C03D28B4208BF8242704714BFA4
:1011400099429042704700002DE9F04D04460D464B
:1011500068004015401C84B016461F461BD024F082
:10116000000035F0004108BF002814D07800401579
:10117000401C10D026F0000037F0004108BF0028C6
:1011800009D0290040F1818000224FF00043101B5C
:1011900063EB010179E068004015401C02D129038E
:1011A00040F0608178004015401C01D1390347D1DF
:1011B00037F0004308BF002A06D168004015401CE4
:1011C0003ED129033CD10BE078004015401C0ED1E4
:1011D00039030CD168004015401C31D129032FD1AF
:1011E000AFF300804FF0FF306FF000413CE124F09E
:1011F000000035F0004108BF002824D139464800DE
:101200000C9A400D121860BB26F0000037F0004128
:1012100008BF002805D00C9A3946FFF789FB06461F
:101220000F4626F0000437F0004508BF002C05D01B
:1012300078004015401C03D1390301D1AFF3008081
:101240003046394610E168004015401C1BD1290387
:1012500019D13B462046294604B0BDE8F04DFFF7C2
:1012600005BC002AD0DD40F2FF70824206DB8049D7
:1012700007F00043002643EA0107D2E76FF31E514F
:1012800041EA0257CDE700200AE00022794B002B0B
:1012900044BF4FF0004060EB03039942104602DA6E
:1012A00007F00041E0E07449002944BF4FF00043DB
:1012B00063EB01012B00224604D54FF0004B821A4C
:1012C0006BEB0303994209DC01DB904206D2AFF3DA
:1012D0000080674907F000431943C5E06748684943
:1012E00022462B46FFF7C2FB664B01F00042134338
:1012F0000022FFF78DFCFFF749FD8046FFF764FDF4
:1013000082468B464FF078405F4952465B46FFF776
:10131000ADFB02460B4620462946FFF767FD044613
:101320000D465A485A4952465B46FFF79FFB024614
:101330000B4620462946FFF759FD0D4625F0004192
:101340000022544BFFF7C6FA044602D234463D460B
:1013500052E022462B462946FFF788FB82468B4601
:101360004D484E4952465B46FFF780FB4C4A4D4B79
:10137000FFF74EFC52465B46FFF778FBCDE90201D2
:101380005246494849495B46FFF770FB484A494B7A
:10139000FFF73EFC52465B46FFF768FB0022394BE5
:1013A000DFF814B1FFF734FC22462B46FFF75EFB53
:1013B00004460D46DDE9020122462B46FFF728FCD4
:1013C00000225B46FFF724FCCDE900012246DDE95F
:1013D00002012B46FFF70AFD00225B46FFF718FCCF
:1013E00002460B46DDE90001FFF772FD32463B463F
:1013F000FFF73CFB04460D460C9800EB080229461B
:101400004800400D02EB000311D0002B0FDD40F22D
:10141000FF70834206DB164905F00043002443EACF
:10142000010510E06FF31E5141EA03550BE024F073
:10143000000035F0004108BF002804D02946FFF71E
:1014400077FA04460D4624F0000235F0004308BF49
:10145000002A05D068004015401C03D1290301D1A2
:10146000AFF300802046294604B0BDE8F08D0000AF
:101470000000F07F00C89CC000C89C40FE822B6525
:101480004715F73F0000E03F422EE63FF2E4D5BCAF
:10149000E7E84B3E0000903C112E5781A03F503FA3
:1014A0005843128C8F71BC3F4BE8A541B752013FA6
:1014B0000BBDF3DAE8708C3F0000F03F2DE9F843F4
:1014C000040016D02078DFF84C64C10713D570688B
:1014D00000F00C00042807D0706800F00C00082809
:1014E00041D17068C1033ED53068810303D560687F
:1014F000002800F064812078DFF82874810719D56E
:10150000706810F00C0F07D0706800F00C0008280D
:1015100061D17068C1035ED43068810703D520694A
:10152000012840F04C813168606921F0F80141EAFE
:10153000C00131602178080740F18180A069DFF89F
:10154000E813002800F0A68001220A6000F002FAE9
:101550000546706A810763D400F0FCF9401B02283D
:10156000F7D903202EE16068B0F5803F04D13068E0
:1015700040F48030306014E008B930680AE0B0F51B
:10158000A02F306806D140F480203060316841F4EB
:10159000803105E020F480303060316821F4802112
:1015A0003160606858B100F0D5F9054630688103B4
:1015B000A1D400F0CFF9401B6528F7D3D1E700F0A4
:1015C000C9F905463068810395D500F0C3F9401B81
:1015D0006528F7D3C5E72069A8B10121396000F07B
:1015E000B9F905463068810705D400F0B3F9401B0E
:1015F0000228F7D9B5E73068616920F0F80040EAC1
:10160000C100306096E7386000F0A4F90546316803
:1016100088078FD500F09EF9401B0228F7D9A0E774
:10162000DFF8F4020168C9084FF47A72B1FBF2F2F4
:10163000009200BF0098411E00280091F9D1207847
:1016400041076ED5F0690025C10009D4F06940F06A
:101650008050F0610125F06900F080500090009802
:10166000DFF8C882D8F80000C10520D4D8F80000FF
:1016700040F48070C8F8000000F06CF98146D8F89A
:101680000000C10513D400F065F9A0EB090065283E
:10169000F5D366E7086000F05DF90546706A8107DA
:1016A000CDD500F057F9401B0228F7D959E7E0687B
:1016B000012808D008B9306A09E00528306A06D147
:1016C00040F004003062306A40F0010005E040085C
:1016D00040003062306A20F00400306241F2893804
:1016E000E06860B100F036F98146306A810713D4B2
:1016F00000F030F9A0EB09004045F6D331E700F0E7
:1017000029F98146306A810706D500F023F9A0EB5C
:1017100009004045F6D324E71DB1F06920F0805060
:10172000F061E06900284CD0716801F00C010829D3
:1017300038D002282AD100F047F8054630688101E8
:1017400005D500F007F9401B0228F7D909E7206A00
:10175000B0F5803F05D17168A06821F400310143E4
:1017600071607268206A616A22F4741202430A434B
:101770007260012000F029F804463068810120D40D
:1017800000F0E8F8001B0228F7D9EAE600F01CF8A0
:1017900004463068810114D500F0DCF8001B0228F3
:1017A000F7D9DEE601280AD07068226A00F4803199
:1017B000914202BF00F47010616A884201D001209A
:1017C00000E00020BDE8F2830020386600F0C2B8D7
:1017D0002DE9F041040088464ED0554E00F077F8D0
:1017E00002D200F06FF847D120684A4D810712D528
:1017F000400703D5696841F4E0616960207801071A
:1018000003D5686840F4605068606968A06821F09A
:10181000F001014369602178C80725D56068012877
:1018200002D129688A0303E00228296802D18A01CB
:1018300002D421E08A071FD56968890840EA81003F
:10184000686000F087F807466868616800F00C007F
:10185000B0EB810F08D000F07DF8C01B41F2893158
:101860008842F1D303202BE0306800F00700804568
:1018700004D200F027F801D0012021E020784107B0
:1018800005D56A68E06822F4E06202436A60217864
:10189000080706D56968206921F4605141EAC00152
:1018A000696000F019F86A6822491B4BC2F3031201
:1018B000895CC84018601A48006800F051F80020A0
:1018C000BDE8F0813168C90848EAC101316030687B
:1018D00000F0070040457047174910480A6802F0B9
:1018E0000C03082B00D0704710B500BF14A4C2F33E
:1018F0008343D203E35C08D50968584314A3C1F3BA
:1019000040415A5CB0FBF2F010BD18460B49484309
:1019100010BD0000001002402C00002000127A00D0
:101920002800002000004242800442420070004033
:10193000002002402C2300080410024000093D0052
:1019400002030405060708090A0B0C0D0E0F101000
:101950000102000001484068704700BF20000020DD
:1019600038B50D4D0D4B2A7804464FF47A7118683E
:10197000B1FBF2F2B0FBF2F000F049F850B9102CD4
:1019800008D2002221464FF0FF3000F023F8AC606F
:10199000002032BD012032BD200000202C0000209C
:1019A0000901020002D4244881547047234B02F0FD
:1019B0000F021A4402F8041C7047214B19684FF6B5
:1019C000FF020002114000F4E06008431D49084393
:1019D0001860704770B51A4B1C68C4F302230124C9
:1019E000C3F10705052D2EBF0F2504FA05F56D1E61
:1019F0001E1D072E34BF0023DB1E2940994004FA28
:101A000003F3BDE870405B1E1A401143C8E710B5F0
:101A1000401EB0F1807F01D3012010BD0A4C6060F0
:101A20000F214FF0FF30FFF7BBFF0021A16007201F
:101A30002060002010BD000000E400E018ED00E090
:101A40000CED00E00000FA0510E000E000000000EE
:101A5000000000000000F0BF000000000000008057
:101A600000000000000000800000000000000000F6
:101A7000000000C05294EEBF00000048204E51BE4E
:101A8000000000F86467BCBC00000000000000001B
:101A9000000000208133EDBF00000080B3DB14BEE6
:101AA000000000506706A3BC00000000000000001A
:101AB000000000D0E9DCEBBF00000008C39259BE73
:101AC00000000080B0D3B8BC00000000000000009F
:101AD00000000070F98FEABF000000C0A51028BE0A
:101AE000000000E8BFC0B0BC000000000000000023
:101AF00000000070284CE9BF00000060134B42BE9C
:101B0000000000C03D20B8BC000000000000000044
:101B100000000050FA10E8BF000000C05FF62BBEC6
:101B2000000000905C71A7BC0000000000000000F5
:101B300000000020FCDDE6BF000000C0F8F154BE4C
:101B400000000018E9F6B9BC000000000000000029
:101B5000000000D0C3B2E5BF00000070E43254BE04
:101B600000000050DB06B4BC0000000000000000D4
:101B700000000010EF8EE4BF00000020F36252BEB0
:101B8000000000C02A879ABC00000000000000008E
:101B9000000000B02272E3BF000000F0E8E056BE93
:101BA00000000028352DBDBC000000000000000032
:101BB000000000000A5CE2BF000000B0FA8E41BEE7
:101BC00000000040AE6FBDBC00000000000000003F
:101BD00000000000564CE1BF000000F015CD5FBED4
:101BE00000000000141C90BC000000000000000079
:101BF00000000040BD42E0BF00000030F93457BE95
:101C0000000000E06C1E93BC00000000000000001B
:101C1000000000E0F57DDEBF000000B08A535EBE2C
:101C200000000080DA77AABC00000000000000007D
:101C3000000000C09D81DCBF00000000FFA226BEA6
:101C40000000006057E2B0BC00000000000000008F
:101C500000000060F98FDABF000000580A8151BE11
:101C6000000000F05F60B8BC000000000000000051
:101C70000000000098A8D8BF000000607A7F45BE31
:101C8000000000D05433A3BC00000000000000009E
:101C9000000000600FCBD6BF000000D091CB40BE4B
:101CA000000000406D1BA0BC000000000000000010
:101CB000000000A0FBF6D4BF00000098C5CE52BEC5
:101CC000000000003A397EBC000000000000000067
:101CD000000000E0FE2BD3BF0000004073872BBE46
:101CE00000000000926879BC0000000000000000C5
:101CF00000000040C069D1BF00000058F16353BE2E
:101D000000000080438D7CBC00000000000000004B
:101D100000000080D85FCFBF000000181F8354BEB2
:101D2000000000B03F42A2BC000000000000000024
:101D30000000008067FCCBBF00000060FAFF53BECC
:101D400000000050E00DB8BC0000000000000000E2
:101D50000000000098A8C8BF000000607A7F35BE70
:101D6000000000C0543393BC0000000000000000DD
:101D700000000000DC63C5BF00000058D6FF54BE61
:101D800000000000396490BC00000000000000006A
:101D9000000000C0AD2DC2BF00000080A45915BED8
:101DA000000000E0484BABBC000000000000000059
:101DB000000000801A0BBEBF00000050BF3C5ABE9E
:101DC000000000A0B364B6BC0000000000000000EA
:101DD0000000008004D6B7BF00000040BBCF36BE75
:101DE0000000008076CEA8BC0000000000000000CB
:101DF0000000008032BBB1BF000000402A0043BE9B
:101E000000000028C60CBDBC00000000000000005F
:101E1000000000009473A7BF000000182B3B59BEC0
:101E2000000000C0E55DA5BC00000000000000004F
:101E300000000000EE4397BF000000A0E6C340BED4
:101E400000000020958DB5BC0000000000000000DF
:101E50000000000000000080000000000000008082
:101E600000000000000000800000000000000000F2
:101E70002DE9F8474FF0000E00245D4A5D4BDFF876
:101E800078814FF00F0982460CE0D7683840D06067
:101E900006E095604D68AD02F7D5D0680743D7607E
:101EA0000EF1010E0F6837FA0EF000F09A80012053
:101EB00000FA0EF63740B742F2D1486838B301282D
:101EC0001AD002281DD003282ED0112816D012288F
:101ED0001AD04A4DA8421CBF494DA84217D0494DBF
:101EE000A8421CBF484DA84211D0484DA8421CBF73
:101EF000474DA8420BD018E0CC6816E0CC68241DF2
:101F000013E0CC68083410E0CC680C340DE088682D
:101F100008B9042409E0012819BF0824CAF814608C
:101F20000824CAF8106000E00024B7F5807F03D2CF
:101F300050464FEA8E0C05E0AEF108050AF10400A8
:101F40004FEA850C056809FA0CF6B54304FA0CF65D
:101F5000354305604868C000A2D5D8F8000040F0BD
:101F60000100C8F80000D8F8005005F00105009500
:101F70004FEA8E0500984FEA9E0053F8206005F066
:101F80000C0C09FA0CF526EA0505224EB24508BFED
:101F9000002609D0204EB24508BF012604D01F4EAE
:101FA000B2450CBF0226032606FA0CF6354343F869
:101FB0002050F8434D68ED0315684CBF3D43054084
:101FC00015604D68AD0355684CBF3D4305405560F5
:101FD0004D689668ED024CBF47EA060500EA060523
:101FE00057E7BDE8F18702B90904016170470000B5
:101FF00000040140080001401810024000001110C8
:10200000000012100000211000002210000031100A
:102010000000321000080140000C01400010014097
:102020002DE9F0474D1E0026DFF8ACA0DFF8AC80AC
:102030000446894617E058F826702846FEF7C4FE85
:1020400002460B4600204FF08041FEF74FF8FEF7A6
:102050009DFE04420CBF00220122B9B25046FFF798
:10206000C2FF6D1E761C4E45E5DBBDE8F08730B53E
:1020700085B000F067F800F035F81022002101A8C3
:1020800000F072F81648144D016841F00401016037
:102090000022006800F004000090FF21009828460C
:1020A000FFF7A1FF01220292FF21019102220024E9
:1020B0000492039401A92846FFF7DAFE082120467E
:1020C000FFF7AEFFFF2C14BF641C00244FF47A709E
:1020D00000F054F8F2E70000000801400000002082
:1020E0001810024000B58FB02822002105A800F08A
:1020F0003BF814220021684600F036F80221012244
:1021000005910992102102220A910C9200214FF4AC
:1021100080220D910E9205A8FFF7D0F908B172B692
:10212000FEE7022101910F2000900022002102927F
:10213000039104926846FFF74BFB08B172B6FEE7C5
:102140000FB000BD80B50748016841F01001016083
:102150000320FFF732FC0F20FFF702FC00F022F80B
:10216000002002BD0020024010B5044610460A4679
:102170000146204600F038F8204610BD38B5044628
:10218000FFF7E8FB14F1010F054602D00449087877
:102190000419FFF7DFFB401BA042FAD331BD00BF9B
:1021A000200000200E4881B0016841F0010101606B
:1021B000026802F0010200920099426842F08052E7
:1021C0004260406800F08050009000980548016827
:1021D00021F0E06141F08061016001B0704700BF13
:1021E000181002400400014062F30F2262F31F4204
:1021F000401810F0030308D0C91A1FD3DB0748BFEB
:1022000000F8012D28BF20F8022D130030B4144629
:102210001546103928BF20E93C00FAD8490728BFE5
:1022200020E90C0048BF40F8042D890028BF20F8A1
:10223000022D48BF00F8012D30BC7047C91818BFE7
:1022400000F8012DCB0728BF00F8012D70470000D2
:10225000800000004000000020000000100000008E
:10226000080000000400000002000000010000005F
:102270000100000000000000100000000024F40035
:1022800010B5074979441831064C7C44163404E0F3
:102290000A68081D114488470146A142F8D110BDC3
:1022A00008000000180000005BE6FFFF300000009F
:1022B000A0FFFFFF000000200000000000F00DF86C
:1022C000002801D0FFF7DCFFAFF300800020AFF360
:1022D0000080FFF7CCFE00F002F80120704700F00C
:1022E00001B800000746384600F002F8FBE700009E
:1022F00080B5AFF30080024A11001820ABBEFBE7A7
:1023000026000200FEE7FEE7FEE7FEE7FEE7704775
:102310007047704700F000B802494A680878821890
:102320004A60704720000020704700000000000055
:102330000000000001020304060708090148804765
:1023400001480047292300084D230008AFF300800F
:10235000AFF30080FFF7B2FFFFF7FEBFFFF7FEBF4E
:10236000FFF7FEBFFFF7FEBFFFF7FEBFFFF7FEBFA1
:10237000FFF7FEBFFFF7FEBFFFF7FEBFFFF7FEBF91
:10238000FFF7FEBFFFF7FEBFFFF7FEBFFFF7FEBF81
:10239000FFF7FEBFFFF7FEBFFFF7FEBFFFF7FEBF71
:1023A000FFF7FEBFFFF7FEBFFFF7FEBFFFF7FEBF61
:1023B000FFF7FEBFFFF7FEBFFFF7FEBFFFF7FEBF51
:1023C000FFF7FEBFFFF7FEBFFFF7FEBFFFF7FEBF41
:1023D000FFF7FEBFFFF7FEBFFFF7FEBFFFF7FEBF31
:1023E000FFF7FEBFFFF7FEBFFFF7FEBFFFF7FEBF21
:040000050800234D7F
:00000001FF
