:020000040800F2
:1000000000280020F502000895020008A10200085F
:10001000A7020008AD020008B302000800000000BB
:10002000000000000000000000000000B90200080D
:10003000C502000800000000D1020008DD0200082F
:100040003D0300083D0300083D0300083D03000890
:100050003D0300083D0300083D0300083D03000880
:100060003D0300083D0300083D0300083D03000870
:100070003D0300083D0300083D0300083D03000860
:100080003D0300083D0300083D0300083D03000850
:100090003D0300083D0300083D0300083D03000840
:1000A0003D0300083D0300083D0300083D03000830
:1000B0003D0300083D030008000000003D03000868
:1000C0003D03000800000000000000003D030008A0
:1000D000000000003D0300083D0300080000000090
:1000E0003D0300083D0300083D0300080000000038
:1000F0000000000000000000000000000000000000
:0C01000000000000000000005FF808F1A3
:10010C0010B5054C237833B9044B13B10448AFF345
:10011C0000800123237010BD2C0000200000000083
:10012C006C0E000808B5034B1BB103490348AFF331
:10013C00008008BD00000000300000206C0E00089C
:10014C0080B582B000AF00F0F5F800F029F800237C
:10015C007B601CE0104A7B6852F823309BB2012272
:10016C0019460E4800F04DFAFA2000F045F90A4AFB
:10017C007B6852F823309BB200221946074800F0E6
:10018C0040FAFA2000F038F97B6801337B607B6819
:10019C00072BDFDDDBE700BF00000020000801407B
:1001AC0080B590B000AF07F1180328220021184643
:1001BC0000F04EFE3B1D00221A605A609A60DA6015
:1001CC001A610223BB610123BB621023FB62002373
:1001DC007B6307F11803184600F02CFA0346002B3A
:1001EC0001D000F018F80F237B600023BB600023C4
:1001FC00FB6000233B6100237B613B1D0021184603
:10020C0000F098FC0346002B01D000F004F800BF6E
:10021C004037BD4680BD80B400AF00BFBD4680BC3A
:10022C007047000080B485B000AF154B9B69144A31
:10023C0043F001039361124B9B6903F00103BB6014
:10024C00BB680F4BDB690E4A43F08053D3610C4BF8
:10025C00DB6903F080537B607B680A4B5B68FB6057
:10026C00FB6823F0E063FB60FB6843F08063FB609A
:10027C00044AFB68536000BF1437BD4680BC70470E
:10028C00001002400000014080B400AF00BFBD462A
:10029C0080BC704780B400AFFEE780B400AFFEE7CF
:1002AC0080B400AFFEE780B400AFFEE780B400AFCF
:1002BC0000BFBD4680BC704780B400AF00BFBD46D8
:1002CC0080BC704780B400AF00BFBD4680BC704797
:1002DC0080B500AF00F074F800BF80BD80B400AFF3
:1002EC0000BFBD4680BC70470C480D490D4A002329
:1002FC0002E0D458C4500433C4188C42F9D30A4ACF
:10030C000A4C002301E013600432A242FBD3FFF736
:10031C00E5FF00F079FDFFF713FF704700000020A8
:10032C002C000020B00E00082C0000204C000020F7
:10033C00FEE7000080B500AF084B1B68074A43F08E
:10034C0010031360032000F029F9002000F008F8D6
:10035C00FFF768FF0023184680BD00BF0020024055
:10036C0080B582B000AF7860124B1A68124B1B78C4
:10037C0019464FF47A73B3FBF1F3B2FBF3F318465F
:10038C0000F033F90346002B01D001230EE07B680B
:10039C000F2B0AD8002279684FF0FF3000F009F9D2
:1003AC00064A7B681360002300E0012318460837D7
:1003BC00BD4680BD20000020280000202400002025
:1003CC0080B400AF054B1B781A46054B1B681344D1
:1003DC00034A136000BFBD4680BC70472800002054
:1003EC004800002080B400AF024B1B681846BD4685
:1003FC0080BC70474800002080B584B000AF7860A6
:10040C00FFF7F0FFB8607B68FB60FB68B3F1FF3F60
:10041C0005D0094B1B781A46FB681344FB6000BFE0
:10042C00FFF7E0FF0246BB68D31AFA689A42F7D886
:10043C0000BF1037BD4680BD2800002080B485B0B9
:10044C0000AF78607B6803F00703FB600C4BDB6844
:10045C00BB60BA684FF6FF031340BB60FB681A021F
:10046C00BB68134343F0BF6343F40033BB60044ADF
:10047C00BB68D36000BF1437BD4680BC704700BF5B
:10048C0000ED00E080B400AF044BDB681B0A03F006
:10049C0007031846BD4680BC704700BF00ED00E066
:1004AC0080B483B000AF03463960FB7197F9073015
:1004BC00002B0ADB3B68DAB20C4997F907301201C2
:1004CC00D2B20B4483F800230AE03B68DAB2084945
:1004DC00FB7903F00F03043B1201D2B20B441A76E2
:1004EC0000BF0C37BD4680BC704700BF00E100E088
:1004FC0000ED00E080B489B000AFF860B9607A60BC
:10050C00FB6803F00703FB61FB69C3F10703042BD2
:10051C0028BF0423BB61FB690433062B02D9FB699A
:10052C00033B00E000237B614FF0FF32BB6902FA12
:10053C0003F3DA43BB681A407B699A404FF0FF31F2
:10054C007B6901FA03F3D9437B680B4013431846CC
:10055C002437BD4680BC704780B582B000AF786050
:10056C007B68013BB3F1807F01D301230FE00A4A82
:10057C007B68013B53600F214FF0FF30FFF790FF7A
:10058C00054B00229A60044B07221A600023184680
:10059C000837BD4680BD00BF10E000E080B582B0DA
:1005AC0000AF78607868FFF749FF00BF0837BD4699
:1005BC0080BD80B586B000AF0346B9607A60FB732E
:1005CC0000237B61FFF75EFF78617A68B968786910
:1005DC00FFF790FF024697F90F3011461846FFF7C8
:1005EC005FFF00BF1837BD4680BD80B582B000AF3D
:1005FC0078607868FFF7B0FF034618460837BD46A9
:10060C0080BD80B483B000AF78600B467B8013460E
:10061C007B707B78002B03D07A887B681A6103E0AF
:10062C007B881A047B681A6100BF0C37BD4680BCFE
:10063C007047000080B586B000AF78607B68002BF7
:10064C0001D101236CE27B681B6803F00103002BD2
:10065C0000F08780924B5B6803F00C03042B0CD0EA
:10066C008F4B5B6803F00C03082B12D18C4B5B682F
:10067C0003F48033B3F5803F0BD1894B1B6803F433
:10068C000033002B6CD07B685B68002B68D1012396
:10069C0046E27B685B68B3F5803F06D1804B1B68F4
:1006AC007F4A43F4803313602EE07B685B68002B39
:1006BC000CD17B4B1B687A4A23F480331360784B44
:1006CC001B68774A23F4802313601DE07B685B680A
:1006DC00B3F5A02F0CD1724B1B68714A43F48023E5
:1006EC0013606F4B1B686E4A43F4803313600BE04E
:1006FC006B4B1B686A4A23F480331360684B1B688E
:10070C00674A23F4802313607B685B68002B13D04B
:10071C00FFF768FE386108E0FFF764FE02463B69AC
:10072C00D31A642B01D90323FAE15D4B1B6803F444
:10073C000033002BF0D014E0FFF754FE386108E0D2
:10074C00FFF750FE02463B69D31A642B01D90323F1
:10075C00E6E1534B1B6803F40033002BF0D100E0AF
:10076C0000BF7B681B6803F00203002B63D04C4B6B
:10077C005B6803F00C03002B0BD0494B5B6803F058
:10078C000C03082B1CD1464B5B6803F48033002B05
:10079C0016D1434B1B6803F00203002B05D07B687A
:1007AC001B69012B01D00123BAE13D4B1B6823F0DF
:1007BC00F8027B685B69DB00394913430B603AE054
:1007CC007B681B69002B20D0364B01221A60FFF787
:1007DC0009FE386108E0FFF705FE02463B69D31AB3
:1007EC00022B01D903239BE12D4B1B6803F0020361
:1007FC00002BF0D02A4B1B6823F0F8027B685B6956
:10080C00DB00274913430B6015E0264B00221A60CE
:10081C00FFF7E8FD386108E0FFF7E4FD02463B69AD
:10082C00D31A022B01D903237AE11D4B1B6803F069
:10083C000203002BF0D17B681B6803F00803002B2C
:10084C003AD07B689B69002B19D0174B01221A6098
:10085C00FFF7C8FD386108E0FFF7C4FD02463B69AD
:10086C00D31A022B01D903235AE10D4B5B6A03F017
:10087C000203002BF0D0012000F0A8FA1CE00A4B78
:10088C0000221A60FFF7AEFD38610FE0FFF7AAFDFA
:10089C0002463B69D31A022B08D9032340E100BF5F
:1008AC000010024000004242800442429E4B5B6AB0
:1008BC0003F00203002BE9D17B681B6803F00403EF
:1008CC00002B00F0A6800023FB75974BDB6903F02F
:1008DC008053002B0DD1944BDB69934A43F080532A
:1008EC00D361914BDB6903F08053BB60BB68012380
:1008FC00FB758E4B1B6803F48073002B18D18B4B4C
:10090C001B688A4A43F480731360FFF76BFD3861F0
:10091C0008E0FFF767FD02463B69D31A642B01D947
:10092C000323FDE0814B1B6803F48073002BF0D094
:10093C007B68DB68012B06D17B4B1B6A7A4A43F040
:10094C00010313622DE07B68DB68002B0CD1764B26
:10095C001B6A754A23F001031362734B1B6A724ABC
:10096C0023F0040313621CE07B68DB68052B0CD1BD
:10097C006D4B1B6A6C4A43F0040313626A4B1B6A8F
:10098C00694A43F0010313620BE0674B1B6A664A2A
:10099C0023F001031362644B1B6A634A23F00403C4
:1009AC0013627B68DB68002B15D0FFF71BFD3861E9
:1009BC000AE0FFF717FD02463B69D31A41F2883271
:1009CC00934201D90323ABE0574B1B6A03F002039C
:1009DC00002BEED014E0FFF705FD38610AE0FFF7BD
:1009EC0001FD02463B69D31A41F28832934201D988
:1009FC00032395E04C4B1B6A03F00203002BEED152
:100A0C00FB7D012B05D1484BDB69474A23F0805312
:100A1C00D3617B68DB69002B00F08180424B5B6803
:100A2C0003F00C03082B61D07B68DB69022B46D1E9
:100A3C003F4B00221A60FFF7D5FC386108E0FFF746
:100A4C00D1FC02463B69D31A022B01D9032367E080
:100A5C00354B1B6803F00073002BF0D17B681B6ACD
:100A6C00B3F5803F08D1304B5B6823F400327B68D0
:100A7C009B682D4913434B602B4B5B6823F474121A
:100A8C007B68196A7B685B6A0B43274913434B608D
:100A9C00274B01221A60FFF7A5FC386108E0FFF72D
:100AAC00A1FC02463B69D31A022B01D9032337E080
:100ABC001D4B1B6803F00073002BF0D02FE01C4B78
:100ACC0000221A60FFF78EFC386108E0FFF78AFC01
:100ADC0002463B69D31A022B01D9032320E0124BA7
:100AEC001B6803F00073002BF0D118E07B68DB6906
:100AFC00012B01D1012313E00B4B5B68FB60FB68FE
:100B0C0003F480327B681B6A9A4206D1FB6803F4BB
:100B1C0070127B685B6A9A4201D0012300E00023CB
:100B2C0018461837BD4680BD0010024000700040CA
:100B3C006000424280B584B000AF786039607B6859
:100B4C00002B01D10123D0E06A4B1B6803F0070393
:100B5C003A689A4210D9674B1B6823F00702654923
:100B6C003B6813430B60634B1B6803F007033A6845
:100B7C009A4201D00123B8E07B681B6803F00203A2
:100B8C00002B20D07B681B6803F00403002B05D0DE
:100B9C00594B5B68584A43F4E06353607B681B68AD
:100BAC0003F00803002B05D0534B5B68524A43F407
:100BBC0060535360504B5B6823F0F0027B689B687A
:100BCC004D4913434B607B681B6803F00103002BFA
:100BDC0040D07B685B68012B07D1474B1B6803F443
:100BEC000033002B15D101237FE07B685B68022B5F
:100BFC0007D1414B1B6803F00073002B09D1012373
:100C0C0073E03D4B1B6803F00203002B01D1012361
:100C1C006BE0394B5B6823F003027B685B683649F9
:100C2C0013434B60FFF7DEFBF8600AE0FFF7DAFBDB
:100C3C000246FB68D31A41F28832934201D903234E
:100C4C0053E02D4B5B6803F00C027B685B689B00E8
:100C5C009A42EBD1274B1B6803F007033A689A4280
:100C6C0010D2244B1B6823F0070222493B68134324
:100C7C000B60204B1B6803F007033A689A4201D0C3
:100C8C00012332E07B681B6803F00403002B08D0BF
:100C9C00194B5B6823F4E0627B68DB6816491343ED
:100CAC004B607B681B6803F00803002B09D0124BC8
:100CBC005B6823F460527B681B69DB000E491343AD
:100CCC004B6000F021F801460B4B5B681B0903F0ED
:100CDC000F030A4AD35C21FA03F3094A1360094B48
:100CEC001B681846FFF73CFB002318461037BD461F
:100CFC0080BD00BF0020024000100240980E00088A
:100D0C00200000202400002090B48AB000AF2A4BB1
:100D1C003C1D0FCB84E80F00284B1B883B80002325
:100D2C00FB610023BB6100237B6200237B610023FA
:100D3C003B62234B5B68FB61FB6903F00C03042BE8
:100D4C0002D0082B03D02DE01E4B3B622DE0FB693B
:100D5C009B0C03F00F0307F12802134413F8243CF7
:100D6C007B61FB6903F48033002B13D0144B5B685D
:100D7C005B0C03F0010307F12802134413F8283C21
:100D8C00BB617B690F4A02FB03F2BB69B2FBF3F355
:100D9C007B6204E07B690C4A02FB03F37B627B6A97
:100DAC003B6202E0074B3B6200BF3B6A18462837A8
:100DBC00BD4690BC704700BF840E0008940E00081E
:100DCC000010024000127A0000093D0080B485B08A
:100DDC0000AF78600A4B1B680A4AA2FB03235B0A2C
:100DEC007A6802FB03F3FB6000BFFB685A1EFA60D3
:100DFC00002BF9D100BF1437BD4680BC704700BF33
:100E0C0020000020D34D621070B500250C4E0D4C07
:100E1C00A41BA410A54209D100F022F800250A4E0B
:100E2C000A4CA41BA410A54205D170BD56F8253060
:100E3C0098470135EEE756F8253098470135F2E72B
:100E4C00A80E0008A80E0008A80E0008AC0E00089A
:100E5C0003460244934200D1704703F8011BF9E7A3
:100E6C00F8B500BFF8BC08BC9E467047F8B500BF8B
:080E7C00F8BC08BC9E4670475B
:100E840002030405060708090A0B0C0D0E0F1010C7
:100E94000102000000000000000000000102030441
:040EA400060708092C
:040EA800310100080C
:040EAC000D0100082C
:100EB0000100000002000000040000000800000023
:100EC0001000000020000000400000008000000032
:0C0ED0000024F4001000000001000000ED
:04000005080002F5F8
:00000001FF
