:020000040800F2
:1000000000280020411700088916000895160008EE
:100010009B160008A1160008A716000800000000A3
:10002000000000000000000000000000AD16000805
:10003000B916000800000000C5160008D116000817
:100040008917000889170008891700088917000810
:100050008917000889170008891700088917000800
:1000600089170008891700088917000889170008F0
:1000700089170008891700088917000889170008E0
:1000800089170008891700088917000889170008D0
:1000900089170008891700088917000889170008C0
:1000A00089170008891700088917000889170008B0
:1000B0008917000889170008000000008917000848
:1000C00089170008000000000000000089170008E0
:1000D00000000000891700088917000800000000D0
:1000E0008917000889170008891700080000000018
:1000F0000000000000000000000000000000000000
:0C01000000000000000000005FF808F1A3
:1001100010B5054C237833B9044B13B10448AFF341
:1001200000800123237010BD70000020000000003B
:10013000D83B000808B5034B1BB103490348AFF394
:10014000008008BD0000000074000020D83B0008BB
:100150004FF0FF0C1CEAD0521EBF1CEAD15392EAAA
:100160000C0F93EA0C0F6FD01A4480EA010C400286
:1001700018BF5FEA41211ED04FF0006343EA5010E0
:1001800043EA5111A0FB01310CF00040B1F5000F22
:100190003EBF490041EAD3715B0040EA010062F1D1
:1001A0007F02FD2A1DD8B3F1004F40EBC25008BFBB
:1001B00020F00100704790F0000F0CF0004C08BFD9
:1001C00049024CEA502040EA51207F3AC2BFD2F1A6
:1001D000FF0340EAC250704740F400004FF00003B4
:1001E000013A5DDC12F1190FDCBF00F000407047EE
:1001F000C2F10002410021FA02F1C2F1200200FA2C
:1002000002FC5FEA310040F1000053EA4C0308BFF2
:1002100020EADC70704792F0000F00F0004C02BF43
:10022000400010F4000F013AF9D040EA0C0093F0BE
:10023000000F01F0004C02BF490011F4000F013B18
:10024000F9D041EA0C018FE70CEAD15392EA0C0F86
:1002500018BF93EA0C0F0AD030F0004C18BF31F0F1
:10026000004CD8D180EA010000F00040704790F0C7
:10027000000F17BF90F0004F084691F0000F91F06B
:10028000004F14D092EA0C0F01D142020FD193EA31
:100290000C0F03D14B0218BF084608D180EA0100B9
:1002A00000F0004040F0FE4040F40000704740F095
:1002B000FE4040F44000704781F0004102E000BF82
:1002C00083F0004330B54FEA41044FEA430594EA16
:1002D000050F08BF90EA020F1FBF54EA000C55EA51
:1002E000020C7FEA645C7FEA655C00F0E2804FEA22
:1002F0005454D4EB5555B8BF6D420CDD2C4480EA04
:10030000020281EA030382EA000083EA010180EA33
:10031000020281EA0303362D88BF30BD11F0004F81
:100320004FEA01314FF4801C4CEA113102D04042B7
:1003300061EB410113F0004F4FEA03334CEA1333F2
:1003400002D0524263EB430394EA050F00F0A7800A
:10035000A4F10104D5F1200E0DDB02FA0EFC22FA05
:1003600005F2801841F1000103FA0EF2801843FAF9
:1003700005F359410EE0A5F120050EF1200E012AEA
:1003800003FA0EFC28BF4CF0020C43FA05F3C01828
:1003900051EBE37101F0004507D54FF0000EDCF1A1
:1003A000000C7EEB00006EEB0101B1F5801F1BD34A
:1003B000B1F5001F0CD349085FEA30004FEA3C0C4E
:1003C00004F101044FEA445212F5800F80F09A8044
:1003D000BCF1004F08BF5FEA500C50F1000041EB48
:1003E000045141EA050130BD5FEA4C0C404141EB4C
:1003F0000101013C28BFB1F5801FE9D291F0000F47
:1004000004BF01460020B1FA81F308BF2033A3F1F5
:100410000B03B3F120020CDA0C3208DD02F1140CEC
:10042000C2F10C0201FA0CF021FA02F10CE002F127
:100430001402D8BFC2F1200C01FA02F120FA0CFC20
:10044000DCBF41EA0C019040E41AA2BF01EB045169
:10045000294330BD6FEA04041F3C1CDA0C340EDC67
:1004600004F11404C4F1200220FA04F001FA02F3AA
:1004700040EA030021FA04F345EA030130BDC4F168
:100480000C04C4F1200220FA02F001FA04F340EA5D
:100490000300294630BD21FA04F0294630BD94F00E
:1004A000000F83F4801306BF81F480110134013DF5
:1004B0004EE77FEA645C18BF7FEA655C29D094EA66
:1004C000050F08BF90EA020F05D054EA000C04BFE4
:1004D0001946104630BD91EA030F1EBF00210020CF
:1004E00030BD5FEA545C05D14000494128BF41F06E
:1004F000004130BD14F580043CBF01F5801130BDD2
:1005000001F0004545F0FE4141F470014FF000005C
:1005100030BD7FEA645C1ABF194610467FEA655C0D
:100520001CBF0B46024650EA013406BF52EA0335AF
:1005300091EA030F41F4002130BD00BF90F0000F9D
:1005400004BF0021704730B54FF4806404F13204D9
:100550004FF000054FF0000150E700BF90F0000F92
:1005600004BF0021704730B54FF4806404F13204B9
:1005700010F0004548BF40424FF000013EE700BF89
:1005800042004FEAE2014FEA31014FEA02701FBF19
:1005900012F07F4393F07F4F81F06051704732F04B
:1005A0007F4208BF704793F07F4F04BF41F40021A2
:1005B000704730B54FF4607401F0004521F0004100
:1005C0001CE700BF50EA010208BF704730B54FF08A
:1005D00000050AE050EA010208BF704730B511F08B
:1005E000004502D5404261EB41014FF4806404F1C3
:1005F00032045FEA915C3FF4D8AE4FF003025FEA49
:10060000DC0C18BF03325FEADC0C18BF033202EBCC
:10061000DC02C2F1200300FA03FC20FA02F001FA26
:1006200003FE40EA0E0021FA02F11444BDE600BFC9
:1006300070B54FF0FF0C4CF4E06C1CEA11541DBF78
:100640001CEA135594EA0C0F95EA0C0F00F0DEF843
:100650002C4481EA030621EA4C5123EA4C5350EA28
:10066000013518BF52EA033541F4801143F4801379
:1006700038D0A0FB02CE4FF00005E1FB02E506F00A
:100680000042E0FB03E54FF00006E1FB03569CF05F
:10069000000F18BF4EF0010EA4F1FF04B6F5007F65
:1006A00064F5407404D25FEA4E0E6D4146EB0606D7
:1006B00042EAC62141EA55514FEAC52040EA5E5060
:1006C0004FEACE2EB4F1FD0C88BFBCF5E06F1ED80A
:1006D000BEF1004F08BF5FEA500E50F1000041EB41
:1006E000045170BD06F0004646EA010140EA0200EE
:1006F00081EA0301B4EB5C04C2BFD4EB0C0541EA10
:10070000045170BD41F480114FF0000E013C00F324
:10071000AB8014F1360FDEBF002001F0004170BD48
:10072000C4F10004203C35DA0C341BDC04F1140461
:10073000C4F1200500FA05F320FA04F001FA05F2ED
:1007400040EA020001F0004221F0004110EBD370BA
:1007500021FA04F642EB06015EEA430E08BF20EAE6
:10076000D37070BDC4F10C04C4F1200500FA04F389
:1007700020FA05F001FA04F240EA020001F000411B
:1007800010EBD37041F100015EEA430E08BF20EA8E
:10079000D37070BDC4F1200500FA05F24EEA020ED6
:1007A00020FA04F301FA05F243EA020321FA04F005
:1007B00001F0004121FA04F220EA020000EBD370BC
:1007C0005EEA430E08BF20EAD37070BD94F0000FBC
:1007D0000FD101F00046400041EB010111F4801FF0
:1007E00008BF013CF7D041EA060195F0000F18BFA1
:1007F000704703F00046520043EB030313F4801FDD
:1008000008BF013DF7D043EA0603704794EA0C0F96
:100810000CEA135518BF95EA0C0F0CD050EA4106AC
:1008200018BF52EA4306D1D181EA030101F0004129
:100830004FF0000070BD50EA410606BF1046194651
:1008400052EA430619D094EA0C0F02D150EA01365D
:1008500013D195EA0C0F05D152EA03361CBF10469E
:1008600019460AD181EA030101F0004141F0FE413D
:1008700041F470014FF0000070BD41F0FE4141F4C1
:10088000780170BD70B54FF0FF0C4CF4E06C1CEAC1
:1008900011541DBF1CEA135594EA0C0F95EA0C0F76
:1008A00000F0A7F8A4EB050481EA030E52EA033531
:1008B0004FEA013100F088804FEA03334FF0805552
:1008C00045EA131343EA12634FEA022245EA11157F
:1008D00045EA10654FEA00260EF000419D4208BF30
:1008E000964244F1FD0404F5407402D25B084FEADD
:1008F0003202B61A65EB03055B084FEA32024FF489
:1009000080104FF4002CB6EB020E75EB030E22BFE5
:10091000B61A754640EA0C005B084FEA3202B6EBA5
:10092000020E75EB030E22BFB61A754640EA5C0054
:100930005B084FEA3202B6EB020E75EB030E22BFE4
:10094000B61A754640EA9C005B084FEA3202B6EBE5
:10095000020E75EB030E22BFB61A754640EADC00A4
:1009600055EA060E18D04FEA051545EA16754FEA06
:1009700006164FEAC30343EA52734FEAC2025FEA24
:100980001C1CC0D111F4801F0BD141EA00014FF0B3
:1009900000004FF0004CB6E711F4801F04BF014384
:1009A0000020B4F1FD0C88BFBCF5E06F3FF6AFAEA0
:1009B000B5EB030C04BFB6EB020C5FEA500C50F130
:1009C000000041EB045170BD0EF0004E4EEA1131B3
:1009D00014EB5C04C2BFD4EB0C0541EA045170BDBA
:1009E00041F480114FF0000E013C90E645EA060EFE
:1009F0008DE60CEA135594EA0C0F08BF95EA0C0F2C
:100A00003FF43BAF94EA0C0F0AD150EA01347FF473
:100A100034AF95EA0C0F7FF425AF104619462CE74A
:100A200095EA0C0F06D152EA03353FF4FDAE1046AD
:100A3000194622E750EA410618BF52EA43067FF4FE
:100A4000C5AE50EA41047FF40DAF52EA43057FF48E
:100A5000EBAE12E74FF0FF3C06E000BF4FF0010C99
:100A600002E000BF4FF0010C4DF804CD4FEA410CFD
:100A70007FEA6C5C4FEA430C18BF7FEA6C5C1BD0CA
:100A800001B050EA410C0CBF52EA430C91EA030F4B
:100A900002BF90EA020F0020704710F1000F91EAA8
:100AA000030F58BF994208BF90422CBFD8176FEA76
:100AB000E37040F0010070474FEA410C7FEA6C5C44
:100AC00002D150EA013C07D14FEA430C7FEA6C5C4B
:100AD000D6D152EA033CD3D05DF8040B704700BF77
:100AE0008446104662468C461946634600E000BFC5
:100AF00001B5FFF7B7FF002848BF10F1000F01BD97
:100B00004DF808EDFFF7F4FF0CBF012000205DF861
:100B100008FB00BF4DF808EDFFF7EAFF34BF0120E6
:100B200000205DF808FB00BF4DF808EDFFF7E0FF7F
:100B300094BF012000205DF808FB00BF4DF808EDD0
:100B4000FFF7CEFF94BF012000205DF808FB00BF37
:100B50004DF808EDFFF7C4FF34BF012000205DF819
:100B600008FB00BF4FEA410C7FEA6C5C02D150EAFF
:100B7000013C0AD14FEA430C7FEA6C5C02D152EA95
:100B8000033C02D14FF0000070474FF00100704766
:100B90004FEA4102B2F1E04324BFB3F5001CDCF19F
:100BA000FE5C0DD901F0004C4FEAC0024CEA5070D7
:100BB000B2F1004F40EB830008BF20F00100704706
:100BC00011F0804F21D113F13872BCBF01F0004009
:100BD000704741F480114FEA5252C2F11802C2F13B
:100BE000200C10FA0CF320FA02F018BF40F00100BC
:100BF0004FEAC1234FEAD32303FA0CFC40EA0C006E
:100C000023FA02F34FEA4303CCE77FEA625307D1AA
:100C100050EA01331EBF4FF0FE4040F440007047E1
:100C200001F0004040F0FE4040F40000704700BF7B
:100C300080F0004002E000BF81F0004142001FBF91
:100C40005FEA410392EA030F7FEA226C7FEA236C9A
:100C50006AD04FEA1262D2EB1363C1BFD21841408F
:100C600048404140B8BF5B42192B88BF704710F025
:100C7000004F40F4000020F07F4018BF404211F0C8
:100C8000004F41F4000121F07F4118BF494292EA30
:100C9000030F3FD0A2F1010241FA03FC10EB0C005C
:100CA000C3F1200301FA03F100F0004302D54942E9
:100CB00060EB4000B0F5000F13D3B0F1807F06D396
:100CC00040084FEA310102F10102FE2A51D2B1F18E
:100CD000004F40EBC25008BF20F0010040EA030083
:100CE0007047490040EB0000013A28BFB0F5000F03
:100CF000EDD2B0FA80FCACF1080CB2EB0C0200FAB9
:100D00000CF0AABF00EBC25052421843BCBFD04007
:100D10001843704792F0000F81F4000106BF80F481
:100D200000000132013BB5E74FEA41037FEA226C44
:100D300018BF7FEA236C21D092EA030F04D092F00F
:100D4000000F08BF0846704790EA010F1CBF002043
:100D5000704712F07F4F04D1400028BF40F00040A0
:100D6000704712F100723CBF00F50000704700F0C0
:100D7000004343F0FE4040F4000070477FEA2262E7
:100D800016BF08467FEA23630146420206BF5FEAB8
:100D9000412390EA010F40F4800070474FF00003B8
:100DA00004E000BF10F0004348BF40425FEA000C7F
:100DB00008BF704743F0964301464FF000001CE027
:100DC00050EA010208BF70474FF000030AE000BF7D
:100DD00050EA010208BF704711F0004302D54042BB
:100DE00061EB41015FEA010C02BF8446014600202D
:100DF00043F0B64308BFA3F18053A3F50003BCFA48
:100E00008CF2083AA3EBC25310DB01FA02FC6344F4
:100E100000FA02FCC2F12002BCF1004F20FA02F2FB
:100E200043EB020008BF20F00100704702F12002EE
:100E300001FA02FCC2F1200250EA4C0021FA02F24F
:100E400043EB020008BF20EADC7070474FEA400223
:100E5000B2F1FE4F0FD34FF09E03B3EB12620DD9E8
:100E60004FEA002343F0004310F0004F23FA02F052
:100E700018BF404270474FF00000704712F1610FF9
:100E800001D1420205D110F0004008BF6FF00040D0
:100E900070474FF00000704780B500AF0021382048
:100EA00000F012F800210C2000F00EF800210620BE
:100EB00000F00AF80021012000F006F8002180204F
:100EC00000F002F800BF80BD80B584B000AF0346DB
:100ED0000A46FB711346BB71BB791A464FF4807109
:100EE000384801F065FBFB7903F00103FB73FB7BE2
:100EF0001A460121334801F05BFBFB795B08DBB24A
:100F000003F00103FB73FB7B1A4602212D4801F01D
:100F10004FFBFB799B08DBB203F00103FB73FB7B08
:100F20001A460421274801F043FBFB79DB08DBB2BA
:100F300003F00103FB73FB7B1A460821214801F0F3
:100F400037FBFB791B09DBB203F00103FB73FB7B6F
:100F50001A4610211B4801F02BFBFB795B09DBB221
:100F600003F00103FB73FB7B1A462021154801F0B7
:100F70001FFBFB799B09DBB203F00103FB73FB7BD7
:100F80001A4640210F4801F013FBFB79DB09FB7384
:100F9000FB7B1A4680210B4801F00AFB01224FF42B
:100FA0000071084801F004FB052000F051FC00220C
:100FB0004FF40071034801F0FBFA00BF1037BD4643
:100FC00080BD00BF000C014080B58AB000AF7860E2
:100FD00000233B6200237B627868FFF737FF0346FC
:100FE000FB61F869FFF7DEFE034619467868FFF7F4
:100FF00023FE0346BB612849B869FFF7A9F80346F9
:101000001846FFF723FF03463B623B6A002BB8BF3D
:101010005B423B6207F10C03FA692049184602F073
:101020008DF80BE007F10C027B6A13441B78012159
:101030001846FFF749FF7B6A01337B6207F10C0218
:101040007B6A13441B78002BECD101212E20FFF783
:101050003BFF07F10C033A6A1049184602F06EF89C
:1010600000237B620BE007F10C027B6A13441B78C0
:1010700001211846FFF728FF7B6A01337B6207F1E5
:101080000C027B6A13441B78002BECD100BF00BF1D
:101090002837BD4680BD00BF00247449F03B0008DE
:1010A00080B582B000AF786007E07B685A1C7A6038
:1010B0001B7801211846FFF707FF7B681B78002B80
:1010C000F3D100BF00BF0837BD4680BD000000005F
:1010D00090B587B000AF00F059FB00F071F900F057
:1010E000FDF900F0BDF900222021AB4801F060FAC3
:1010F00000224021A84801F05BFA00228021A64886
:1011000001F056FA00224FF48071A34801F050FA22
:1011100000224FF40071A04801F04AFA01224FF476
:1011200000719D4801F044FAFFF7B6FE9B48FFF7B7
:10113000B7FF4FF4967000F08BFB00224FF4007164
:10114000954801F035FA01224FF48071924801F080
:101150002FFA934800F078FC4FF47A71904800F031
:1011600021FD8F4800F024FE0346FB82FB8A1846CF
:10117000FFF7F4F982A3D3E90023FFF759FA0246F7
:101180000B46104619464FF00002864BFFF77AFBDC
:1011900002460B46104619467BA3D3E90023FFF70E
:1011A00091F802460B4610461946FFF7F1FC03463C
:1011B0003B61FFF771FE7C48FFF772FF3869FFF76C
:1011C00003FF4FF4967000F043FB00224FF4807150
:1011D000714801F0EDF9012280216F4801F0E8F932
:1011E0004FF47A716E4800F0DDFC6D4800F0E0FDD0
:1011F0000346FB82FB8A1846FFF7B0F960A3D3E9E8
:101200000023FFF715FA02460B46104619464FF029
:101210000002644BFFF736FB02460B4610461946A8
:101220004FF00002614BFFF74DF802460B461046A7
:101230001946FFF7ADFC0346FB60FFF72DFE5C4847
:10124000FFF72EFFF868FFF7BFFE4FF4967000F02F
:10125000FFFA00228021504801F0AAF90122402122
:101260004D4801F0A5F94FF47A714D4800F09AFC11
:101270004B4800F09DFD0346FB82FB8A1846FFF7B2
:101280006DF93FA3D3E90023FFF7D2F902460B46DD
:10129000104619464FF00002424BFFF7F3FA0246A0
:1012A0000B46104619463AA3D3E90023FFF70AF884
:1012B00002460B4610461946FFF76AFC0346BB6020
:1012C000FFF7EAFD3B48FFF7EBFEB868FFF77CFE4F
:1012D0004FF4967000F0BCFA002240212E4801F035
:1012E00067F9012220212C4801F062F93969386937
:1012F000FEF72EFF03461C46F968F868FEF728FF44
:10130000034619462046FFF799FC03461C46B96878
:10131000B868FEF71DFF034619462046FFF78EFC0E
:1013200003461846FFF72CF902460B4610461946AD
:1013300002F07EFB02460B4610461946FFF728FCDA
:1013400003467B60FFF7A8FD1B48FFF7A9FE4FF49B
:10135000967000F07DFAFFF79FFD7868FFF734FE86
:101360001648FFF79DFE4FF4967000F071FA0022C8
:101370002021094801F01CF9D0E600BFAFF300803E
:101380006666666666660A406666666666661840F3
:101390009A9999999999054000080140F43B0008F1
:1013A0008C0000200000B040083C00080000E03F36
:1013B0000C3C0008103C0008143C0008243C0008C9
:1013C00080B594B000AF07F1280328220021184609
:1013D00001F0ACFE07F1140300221A605A609A6013
:1013E000DA601A613B1D00221A605A609A60DA6066
:1013F0000223BB620123BB631023FB6300237B64D6
:1014000007F12803184601F0EBF80346002B01D042
:1014100000F0C6F80F237B610023BB610023FB6152
:1014200000233B6200237B6207F11403002118466E
:1014300001F058FB0346002B01D000F0B1F8022365
:101440007B600023FB603B1D184601F0CFFC034688
:10145000002B01D000F0A4F800BF5037BD4680BD7E
:1014600080B584B000AF3B1D00221A605A609A60BC
:10147000184B194A1A60174B00229A60154B00222C
:101480001A73144B00221A75124B4FF46022DA6162
:10149000104B00225A600F4B01221A610D4800F0D8
:1014A000FBF90346002B01D000F07AF800237B60A3
:1014B0000123BB600023FB603B1D1946054800F07B
:1014C00083FC0346002B01D000F06AF800BF103700
:1014D000BD4680BD8C0000200024014080B588B04E
:1014E00000AF07F1100300221A605A609A60DA60B8
:1014F000284B9B69274A43F020039361254B9B6946
:1015000003F02003FB60FB68224B9B69214A43F0F8
:10151000040393611F4B9B6903F00403BB60BB682A
:101520001C4B9B691B4A43F008039361194B9B6951
:1015300003F008037B607B6800224FF47871164843
:1015400001F036F8002240F2FF31144801F030F883
:101550004FF478733B6101237B610023BB6102235D
:10156000FB6107F1100319460B4800F0A5FE40F29D
:10157000FF333B6101237B610023BB610223FB61DD
:1015800007F110031946054800F096FE00BF20370A
:10159000BD4680BD0010024000080140000C014023
:1015A00080B400AF00BFBD4680BC704780B485B03A
:1015B00000AF154B9B69144A43F001039361124B32
:1015C0009B6903F00103BB60BB680F4BDB690E4AEC
:1015D00043F08053D3610C4BDB6903F080537B6095
:1015E0007B680A4B5B68FB60FB6823F0E063FB6091
:1015F000FB6843F08063FB60044AFB68536000BFF4
:101600001437BD4680BC7047001002400000014006
:1016100080B588B000AF786007F1100300221A602F
:101620005A609A60DA607B681B68144A934221D141
:10163000134B9B69124A43F400739361104B9B69EF
:1016400003F40073FB60FB680D4B9B690C4A43F08D
:10165000040393610A4B9B6903F00403BB60BB68FE
:1016600007233B6103237B6107F1100319460548FB
:1016700000F022FE00BF2037BD4680BD002401409F
:10168000001002400008014080B400AF00BFBD461A
:1016900080BC704780B400AFFEE780B400AFFEE7C7
:1016A00080B400AFFEE780B400AFFEE780B400AFC7
:1016B00000BFBD4680BC704780B400AF00BFBD46D0
:1016C00080BC704780B400AF00BFBD4680BC70478F
:1016D00080B500AF00F0A0F800BF80BD80B584B039
:1016E00000AF7860114B1B68002B02D10F4B104AE2
:1016F0001A600E4B1B68FB600C4B1A687B68134426
:101700006A46934207D901F0E7FC03460C221A60AF
:101710004FF0FF3306E0054B1A687B681344034A19
:101720001360FB6818461037BD4680BDBC00002022
:10173000D800002080B400AF00BFBD4680BC704719
:101740000C480D490D4A002302E0D458C45004331C
:10175000C4188C42F9D30A4A0A4C002301E01360F2
:101760000432A242FBD3FFF7E5FF01F0BBFCFFF719
:10177000AFFC70470000002070000020A03C000873
:1017800070000020D4000020FEE7000080B500AF0C
:10179000084B1B68074A43F010031360032000F056
:1017A00057FD002000F008F8FFF700FF002318465F
:1017B00080BD00BF0020024080B582B000AF7860DD
:1017C000124B1A68124B1B7819464FF47A73B3FB0D
:1017D000F1F3B2FBF3F3184600F061FD0346002B72
:1017E00001D001230EE07B680F2B0AD80022796814
:1017F0004FF0FF3000F037FD064A7B68136000238E
:1018000000E0012318460837BD4680BD00000020D7
:10181000080000200400002080B400AF054B1B78B6
:101820001A46054B1B681344034A136000BFBD46AC
:1018300080BC704708000020C000002080B400AFCA
:10184000024B1B681846BD4680BC7047C000002094
:1018500080B584B000AF7860FFF7F0FFB8607B68B8
:10186000FB60FB68B3F1FF3F05D00A4B1B781A46BB
:10187000FB681344FB6000BFFFF7E0FF0246BB6854
:10188000D31AFA689A42F7D800BF00BF1037BD4696
:1018900080BD00BF0800002080B586B000AF786032
:1018A0000023FB7500233B610023BB600023FB602A
:1018B0007B68002B01D10123BEE07B689B68002B75
:1018C0007B689B6A002B09D17B680022DA627B6807
:1018D000002283F824207868FFF79AFE786800F0E9
:1018E000C5FB0346FB757B689B6A03F01003002B66
:1018F00040F09980FB7D002B40F095807B689B6ACF
:1019000023F4885323F0020343F002027B689A62B7
:101910007B685A687B68DB691A437B681B7B5B00CA
:101920001343BA681343BB607B689B68B3F5807F41
:1019300003D07B689B68012B02D14FF4807300E0D9
:1019400000233A6913433B617B681B7D012B19D14E
:101950007B681B7B002B09D17B689B69013B5A0389
:101960003B69134343F400633B610BE07B689B6A74
:1019700043F020027B689A627B68DB6A43F00102D5
:101980007B68DA627B681B685B6823F469417B686B
:101990001B683A690A435A607B681B689A68284B3F
:1019A00013407A681268B9680B4393607B689B6840
:1019B000B3F5807F03D07B689B68012B04D17B68E3
:1019C0001B69013B1B05FB607B681B68DB6A23F41A
:1019D00070017B681B68FA680A43DA627B681B68DF
:1019E0009A68184B1340BA689A420BD17B68002260
:1019F000DA627B689B6A23F0030343F001027B6891
:101A00009A6218E07B689B6A23F0120343F010028D
:101A10007B689A627B68DB6A43F001027B68DA626A
:101A20000123FB7507E07B689B6A43F010027B682B
:101A30009A620123FB75FB7D18461837BD4680BDB1
:101A4000FDF7E1FFFE0E1FFF80B584B000AF7860A8
:101A50000023FB737B6893F82430012B01D1022310
:101A600098E07B68012283F82420786800F0A4FACB
:101A70000346FB73FB7B002B40F087807B689B6AEF
:101A800023F4407323F0010343F480727B689A626D
:101A90007B681B68414A934205D1414B5B6803F464
:101AA0007023002B15D17B689B6A23F480127B681E
:101AB0009A627B681B685B6803F48063002B26D006
:101AC0007B689B6A23F4405343F480527B689A629C
:101AD0001DE07B689B6A43F480127B689A627B6896
:101AE0001B682F4A934204D07B681B682B4A9342A1
:101AF0000DD12B4B5B6803F48063002B07D07B6810
:101B00009B6A23F4405343F480527B689A627B685B
:101B10009B6A03F48053002B06D07B68DB6A23F0BA
:101B200006027B68DA6202E07B680022DA627B6888
:101B3000002283F824207B681B686FF002021A6081
:101B40007B681B689B6803F46023B3F5602F13D197
:101B50007B681B68114A934205D1114B5B6803F403
:101B60007023002B08D17B681B689A687B681B6810
:101B700042F4A0029A600CE07B681B689A687B685C
:101B80001B6842F480129A6003E07B68002283F8AD
:101B90002420FB7B18461037BD4680BD002801403D
:101BA0000024014090B587B000AF78603960002311
:101BB0007B610023FB6000233B61FFF73FFE786100
:101BC0007B681B689B6803F48073002B0BD07B68D9
:101BD0009B6A43F020027B689A627B68002283F84C
:101BE00024200123D3E07B681B685B6803F48073C7
:101BF000002B31D17B681B68DB6A03F47003002B78
:101C00002AD121E03B68B3F1FF3F1DD03B68002B98
:101C100007D0FFF713FE02467B69D31A3A689A424F
:101C200012D27B681B681B6803F00203002B0BD1E8
:101C30007B689B6A43F004027B689A627B6800229F
:101C400083F824200323A2E07B681B681B6803F051
:101C50000203002BD6D070E04F4B1C68022001F02D
:101C60007BF90346B4FBF3F27B681B6819694B4BA5
:101C70000B40002B18D17B681B68D968484B0B4080
:101C8000002B11D17B681B681969464B0B40002B58
:101C900008D17B681B68D968434B0B40002B01D1EE
:101CA000142320E029231EE07B681B6819693D4B43
:101CB0000B40002B06D17B681B68D9683A4B0B4060
:101CC000002B0DD07B681B681969384B0B40002B2B
:101CD00008D17B681B68D968344B0B40002B01D1BD
:101CE000542300E0FC2302FB03F33B6121E03B684B
:101CF000B3F1FF3F1AD03B68002B07D0FFF79EFDE2
:101D000002467B69D31A3A689A420FD2FB683A6955
:101D10009A420BD97B689B6A43F004027B689A6203
:101D20007B68002283F82420032330E0FB68013322
:101D3000FB60FB683A699A42D9D87B681B686FF0F0
:101D400012021A607B689B6A43F400727B689A6295
:101D50007B681B689B6803F46023B3F5602F15D183
:101D60007B681B7B002B11D17B689B6A23F48072FC
:101D70007B689A627B689B6A03F48053002B05D1D1
:101D80007B689B6A43F001027B689A6200231846D5
:101D90001C37BD4690BD00BF00000020244992249E
:101DA0002449920092244912922449004992240025
:101DB00080B483B000AF78607B681B68DB6C18462A
:101DC0000C37BD4680BC704780B485B000AF7860EA
:101DD00039600023FB730023BB607B6893F82430D9
:101DE000012B01D10223DCE07B68012283F824204F
:101DF0003B685B68062B1CD87B681B68596B3B688B
:101E00005A6813469B001344053B1F2202FA03F352
:101E1000DB4319403B6818683B685A6813469B00CF
:101E20001344053B00FA03F27B681B680A435A63BC
:101E30003CE03B685B680C2B1CD87B681B68196B0B
:101E40003B685A6813469B001344233B1F2202FA47
:101E500003F3DB4319403B6818683B685A68134634
:101E60009B001344233B00FA03F27B681B680A4380
:101E70001A631BE07B681B68D96A3B685A68134683
:101E80009B001344413B1F2202FA03F3DB4319403A
:101E90003B6818683B685A6813469B001344413BF3
:101EA00000FA03F27B681B680A43DA623B681B682E
:101EB000092B1CD97B681B68D9683B681A681346D4
:101EC0005B0013441E3B072202FA03F3DB43194075
:101ED0003B6898683B681A6813465B0013441E3BD6
:101EE00000FA03F27B681B680A43DA6019E07B683A
:101EF0001B6819693B681A6813465B001344072284
:101F000002FA03F3DB4319403B6898683B681A68A0
:101F100013465B00134400FA03F27B681B680A4314
:101F20001A613B681B68102B03D03B681B68112BA0
:101F300032D17B681B681D4A934225D17B681B68A0
:101F40009B6803F40003002B26D17B681B689A680A
:101F50007B681B6842F400029A603B681B68102B88
:101F60001AD1134B1B68134AA2FB03239A0C134686
:101F70009B0013445B00BB6002E0BB68013BBB609D
:101F8000BB68002BF9D107E07B689B6A43F0200215
:101F90007B689A620123FB737B68002283F824200C
:101FA000FB7B18461437BD4680BC704700240140B7
:101FB0000000002083DE1B4380B584B000AF786052
:101FC0000023FB600023BB607B681B689B6803F0F9
:101FD0000103012B40D07B681B689A687B681B68F3
:101FE00042F001029A601F4B1B681F4AA2FB0323A9
:101FF0009B0CBB6002E0BB68013BBB60BB68002B75
:10200000F9D1FFF71BFCF8601FE0FFF717FC024651
:10201000FB68D31A022B18D97B681B689B6803F0F6
:102020000103012B11D07B689B6A43F010027B688F
:102030009A627B68DB6A43F001027B68DA627B6844
:10204000002283F82420012307E07B681B689B683B
:1020500003F00103012BD8D1002318461037BD46E9
:1020600080BD00BF0000002083DE1B4380B584B02C
:1020700000AF78600023FB607B681B689B6803F0FF
:102080000103012B2ED17B681B689A687B681B6853
:1020900022F001029A60FFF7D1FBF8601BE0FFF726
:1020A000CDFB0246FB68D31A022B14D97B681B6850
:1020B0009B6803F00103012B0DD17B689B6A43F001
:1020C00010027B689A627B68DB6A43F001027B68DE
:1020D000DA62012307E07B681B689B6803F0010359
:1020E000012BDCD0002318461037BD4680BD000010
:1020F00080B485B000AF78607B6803F00703FB60B5
:102100000C4BDB68BB60BA684FF6FF031340BB6043
:10211000FB681A02BB68134343F0BF6343F4003308
:10212000BB60044ABB68D36000BF1437BD4680BCA7
:10213000704700BF00ED00E080B400AF044BDB68E7
:102140001B0A03F007031846BD4680BC704700BF5A
:1021500000ED00E080B483B000AF03463960FB714E
:1021600097F90730002B0ADB3B68DAB20C4997F984
:1021700007301201D2B20B4483F800230AE03B6817
:10218000DAB20849FB7903F00F03043B1201D2B223
:102190000B441A7600BF0C37BD4680BC704700BFA9
:1021A00000E100E000ED00E080B489B000AFF8602D
:1021B000B9607A60FB6803F00703FB61FB69C3F158
:1021C0000703042B28BF0423BB61FB690433062BE0
:1021D00002D9FB69033B00E000237B614FF0FF3233
:1021E000BB6902FA03F3DA43BB681A407B699A4081
:1021F0004FF0FF317B6901FA03F3D9437B680B4051
:10220000134318462437BD4680BC704780B582B062
:1022100000AF78607B68013BB3F1807F01D301237D
:102220000FE00A4A7B68013B53600F214FF0FF30FB
:10223000FFF790FF054B00229A60044B07221A60BB
:10224000002318460837BD4680BD00BF10E000E0FF
:1022500080B582B000AF78607868FFF749FF00BFB3
:102260000837BD4680BD80B586B000AF0346B96073
:102270007A60FB7300237B61FFF75EFF78617A6809
:10228000B9687869FFF790FF024697F90F30114659
:102290001846FFF75FFF00BF1837BD4680BD80B509
:1022A00082B000AF78607868FFF7B0FF0346184649
:1022B0000837BD4680BD000080B48BB000AF7860A9
:1022C000396000237B6200233B6261E101227B6A6B
:1022D00002FA03F3FB613B681B68FA691340BB61B8
:1022E000BA69FB699A4240F050813B685B68974A43
:1022F00093425ED0954A934275D8954A934258D0FE
:10230000934A93426FD8934A934252D0914A934250
:1023100069D8914A93424CD08F4A934263D88F4AEE
:10232000934246D08D4A93425DD8122B2AD8122B65
:1023300059D801A252F823F0B32300088D230008D6
:102340009F230008E1230008E7230008E723000893
:10235000E7230008E7230008E7230008E723000835
:10236000E7230008E7230008E7230008E723000825
:10237000E7230008E7230008E72300089523000867
:10238000A9230008764A934213D02CE03B68DB680F
:102390003B6229E03B68DB6804333B6224E03B6836
:1023A000DB6808333B621FE03B68DB680C333B6251
:1023B0001AE03B689B68002B02D104233B6213E0C8
:1023C0003B689B68012B05D108233B627B68FA6957
:1023D0001A6109E008233B627B68FA695A6103E0ED
:1023E00000233B6200E000BFBB69FF2B01D87B6884
:1023F00001E07B6804337B61BB69FF2B02D87B6AF9
:102400009B0002E07B6A083B9B003B617B691A688A
:102410000F213B6901FA03F3DB431A40396A3B6938
:1024200001FA03F31A437B691A603B685B6803F0A7
:102430008053002B00F0A9804A4B9B69494A43F026
:1024400001039361474B9B6903F00103BB60BB68C9
:10245000454A7B6A9B08023352F82330FB607B6A53
:1024600003F003039B000F2202FA03F3DB43FA6835
:102470001340FB607B683D4A93420DD07B683C4A29
:10248000934207D07B683B4A934201D1022304E088
:10249000032302E0012300E000237A6A02F0030232
:1024A00092009340FA681343FB602F497B6A9B08B4
:1024B0000233FA6841F823203B685B6803F48033F9
:1024C000002B06D02C4B1A682B49BB6913430B60B9
:1024D00006E0294B1A68BB69DB43274913400B60B0
:1024E0003B685B6803F40033002B06D0224B5A682C
:1024F0002149BB6913434B6006E01F4B5A68BB6917
:10250000DB431D4913404B603B685B6803F4801359
:10251000002B06D0184B9A681749BB6913438B6090
:1025200006E0154B9A68BB69DB43134913408B6087
:102530003B685B6803F40013002B1FD00E4BDA6876
:102540000D49BB691343CB601FE000BF0000321090
:1025500000003110000022100000211000001210B5
:10256000000011100010024000000140000801406E
:10257000000C014000100140000401400B4BDA68E0
:10258000BB69DB4309491340CB607B6A01337B6243
:102590003B681A687B6A22FA03F3002B7FF496AE3D
:1025A00000BF00BF2C37BD4680BC7047000401400F
:1025B00080B483B000AF78600B467B8013467B709D
:1025C0007B78002B03D07A887B681A6103E07B88D4
:1025D0001A047B681A6100BF0C37BD4680BC704787
:1025E00080B586B000AF78607B68002B01D10123F5
:1025F00072E27B681B6803F00103002B00F0878008
:10260000924B5B6803F00C03042B0CD08F4B5B6880
:1026100003F00C03082B12D18C4B5B6803F480335E
:10262000B3F5803F0BD1894B1B6803F40033002BBB
:102630006CD07B685B68002B68D101234CE27B681F
:102640005B68B3F5803F06D1804B1B687F4A43F43B
:10265000803313602EE07B685B68002B0CD17B4BD2
:102660001B687A4A23F480331360784B1B68774ADF
:1026700023F4802313601DE07B685B68B3F5A02F13
:102680000CD1724B1B68714A43F4802313606F4B6B
:102690001B686E4A43F4803313600BE06B4B1B687E
:1026A0006A4A23F480331360684B1B68674A23F43B
:1026B000802313607B685B68002B13D0FFF7BEF8A4
:1026C000386108E0FFF7BAF802463B69D31A642B79
:1026D00001D9032300E25D4B1B6803F40033002B98
:1026E000F0D014E0FFF7AAF8386108E0FFF7A6F889
:1026F00002463B69D31A642B01D90323ECE1534B07
:102700001B6803F40033002BF0D100E000BF7B68AE
:102710001B6803F00203002B63D04C4B5B6803F093
:102720000C03002B0BD0494B5B6803F00C03082B08
:102730001CD1464B5B6803F48033002B16D1434B0E
:102740001B6803F00203002B05D07B681B69012B7B
:1027500001D00123C0E13D4B1B6823F0F8027B68E8
:102760005B69DB00394913430B603AE07B681B6906
:10277000002B20D0364B01221A60FFF75FF838613A
:1027800008E0FFF75BF802463B69D31A022B01D938
:102790000323A1E12D4B1B6803F00203002BF0D0B3
:1027A0002A4B1B6823F0F8027B685B69DB00274932
:1027B00013430B6015E0264B00221A60FFF73EF82A
:1027C000386108E0FFF73AF802463B69D31A022B5A
:1027D00001D9032380E11D4B1B6803F00203002B8A
:1027E000F0D17B681B6803F00803002B3AD07B68AC
:1027F0009B69002B19D0174B01221A60FFF71EF8B6
:10280000386108E0FFF71AF802463B69D31A022B39
:1028100001D9032360E10D4B5B6A03F00203002B37
:10282000F0D0012000F0C4FA1CE00A4B00221A602C
:10283000FFF704F838610FE0FFF700F802463B6944
:10284000D31A022B08D9032346E100BF001002402F
:102850000000424280044242924B5B6A03F0020352
:10286000002BE9D17B681B6803F00403002B00F008
:10287000A6800023FB758B4BDB6903F08053002B94
:102880000DD1884BDB69874A43F08053D361854B78
:10289000DB6903F08053BB60BB680123FB75824B8F
:1028A0001B6803F48073002B18D17F4B1B687E4A92
:1028B00043F480731360FEF7C1FF386108E0FEF750
:1028C000BDFF02463B69D31A642B01D9032303E100
:1028D000754B1B6803F48073002BF0D07B68DB68BA
:1028E000012B06D16F4B1B6A6E4A43F00103136242
:1028F0002DE07B68DB68002B0CD16A4B1B6A694AB0
:1029000023F001031362674B1B6A664A23F004033A
:1029100013621CE07B68DB68052B0CD1614B1B6AE2
:10292000604A43F0040313625E4B1B6A5D4A43F046
:10293000010313620BE05B4B1B6A5A4A23F001034D
:102940001362584B1B6A574A23F0040313627B68D7
:10295000DB68002B15D0FEF771FF38610AE0FEF747
:102960006DFF02463B69D31A41F28832934201D986
:102970000323B1E04B4B1B6A03F00203002BEED0A4
:1029800014E0FEF75BFF38610AE0FEF757FF0246EE
:102990003B69D31A41F28832934201D903239BE069
:1029A000404B1B6A03F00203002BEED1FB7D012B91
:1029B00005D13C4BDB693B4A23F08053D3617B68F4
:1029C000DB69002B00F08780364B5B6803F00C035B
:1029D000082B61D07B68DB69022B46D1334B002288
:1029E0001A60FEF72BFF386108E0FEF727FF02466A
:1029F0003B69D31A022B01D903236DE0294B1B68D5
:102A000003F00073002BF0D17B681B6AB3F5803FA5
:102A100008D1244B5B6823F400327B689B68214912
:102A200013434B601F4B5B6823F474127B68196A75
:102A30007B685B6A0B431B4913434B601B4B0122B2
:102A40001A60FEF7FBFE386108E0FEF7F7FE02466B
:102A50003B69D31A022B01D903233DE0114B1B68BC
:102A600003F00073002BF0D035E0104B00221A6009
:102A7000FEF7E4FE386108E0FEF7E0FE02463B693F
:102A8000D31A022B01D9032326E0064B1B6803F05F
:102A90000073002BF0D11EE07B68DB69012B07D1AE
:102AA000012319E000100240007000406000424223
:102AB0000B4B5B68FB60FB6803F480327B681B6A2E
:102AC0009A4206D1FB6803F470127B685B6A9A42F3
:102AD00001D0012300E0002318461837BD4680BD11
:102AE0000010024080B584B000AF786039607B6828
:102AF000002B01D10123D0E06A4B1B6803F00703D0
:102B00003A689A4210D9674B1B6823F0070265495F
:102B10003B6813430B60634B1B6803F007033A6881
:102B20009A4201D00123B8E07B681B6803F00203DE
:102B3000002B20D07B681B6803F00403002B05D01A
:102B4000594B5B68584A43F4E06353607B681B68E9
:102B500003F00803002B05D0534B5B68524A43F443
:102B600060535360504B5B6823F0F0027B689B68B6
:102B70004D4913434B607B681B6803F00103002B36
:102B800040D07B685B68012B07D1474B1B6803F47F
:102B90000033002B15D101237FE07B685B68022B9B
:102BA00007D1414B1B6803F00073002B09D10123AF
:102BB00073E03D4B1B6803F00203002B01D101239E
:102BC0006BE0394B5B6823F003027B685B68364936
:102BD00013434B60FEF732FEF8600AE0FEF72EFE6C
:102BE0000246FB68D31A41F28832934201D903238B
:102BF00053E02D4B5B6803F00C027B685B689B0025
:102C00009A42EBD1274B1B6803F007033A689A42BC
:102C100010D2244B1B6823F0070222493B68134360
:102C20000B60204B1B6803F007033A689A4201D0FF
:102C3000012332E07B681B6803F00403002B08D0FB
:102C4000194B5B6823F4E0627B68DB681649134329
:102C50004B607B681B6803F00803002B09D0124B04
:102C60005B6823F460527B681B69DB000E491343E9
:102C70004B6000F021F802460B4B5B681B0903F028
:102C80000F030A49CB5C22FA03F3094A1360094B8C
:102C90001B681846FEF790FD002318461037BD4606
:102CA00080BD00BF00200240001002404C3C0008E4
:102CB000000000200400002090B48AB000AF294B2F
:102CC0003C1D0FCB84E80F0040F201233B80002322
:102CD000FB610023BB6100237B6200237B61002337
:102CE0003B62214B5B68FB61FB6903F00C03042B27
:102CF00002D0082B03D02BE01C4B3B622BE0FB697E
:102D00009B0C03F00F0328333B4413F8243C7B61F6
:102D1000FB6903F48033002B12D0134B5B685B0C10
:102D200003F0010328333B4413F8283CBB617B6963
:102D30000E4A03FB02F2BB69B2FBF3F37B6204E0D1
:102D40007B690B4A02FB03F37B627B6A3B6202E016
:102D5000064B3B6200BF3B6A18462837BD4690BC15
:102D6000704700BF2C3C00080010024000127A009F
:102D700000093D0080B400AF024B1B681846BD46F9
:102D800080BC70470000002080B500AFFFF7F2FF65
:102D90000246054B5B68DB0A03F007030349CB5C83
:102DA00022FA03F3184680BD001002405C3C000884
:102DB00080B485B000AF78600A4B1B680A4AA2FB5A
:102DC00003235B0A7A6802FB03F3FB6000BFFB6826
:102DD0005A1EFA60002BF9D100BF00BF1437BD4660
:102DE00080BC704700000020D34D621080B586B0D3
:102DF00000AF786000233B610023FB607B681B68A9
:102E000003F00103002B7DD00023FB754F4BDB69E2
:102E100003F08053002B0DD14C4BDB694B4A43F040
:102E20008053D361494BDB6903F08053BB60BB68BF
:102E30000123FB75464B1B6803F48073002B18D1EC
:102E4000434B1B68424A43F480731360FEF7F6FC61
:102E5000386108E0FEF7F2FC02463B69D31A642BA6
:102E600001D903236DE03A4B1B6803F48073002BF8
:102E7000F0D0364B1B6A03F44073FB60FB68002BF9
:102E80002ED07B685B6803F44073FA689A4227D0BF
:102E90002E4B1B6A23F44073FB602E4B01221A60F9
:102EA0002C4B00221A60294AFB681362FB6803F06E
:102EB0000103002B14D0FEF7C1FC38610AE0FEF7D5
:102EC000BDFC02463B69D31A41F28832934201D9D4
:102ED000032336E01D4B1B6A03F00203002BEED0E8
:102EE0001A4B1B6A23F440727B685B6817491343D3
:102EF0000B62FB7D012B05D1144BDB69134A23F0D8
:102F00008053D3617B681B6803F00203002B08D059
:102F10000E4B5B6823F440427B689B680B4913436C
:102F20004B607B681B6803F01003002B08D0074B35
:102F30005B6823F480027B68DB68044913434B60C1
:102F4000002318461837BD4680BD00BF0010024060
:102F5000007000404004424290B58DB000AF7860F0
:102F6000584B07F10C040FCB84E80F0040F201230B
:102F70003B8100237B620023FB6200233B62002332
:102F8000FB610023BB627B68102B0AD07B68102B8F
:102F900000F28E807B68012B49D07B68022B79D0B0
:102FA00086E0494B5B68FB61474B1B6803F080730D
:102FB000002B7FD0FB699B0C03F00F0330333B44A5
:102FC00013F8243C3B62FB6903F48033002B17D0D9
:102FD0003D4B5B685B0C03F0010330333B4413F85B
:102FE000283C7B62FB6903F48033002B0DD0374A09
:102FF0007B6AB2FBF3F23B6A02FB03F3FB6204E081
:103000003B6A334A02FB03F3FB622F4B5B6803F41A
:103010008003B3F5800F02D1FB6ABB624AE0FB6A12
:103020005B002C4AA2FB03235B08BB6242E0264BF9
:103030001B6AFB61FB6903F44073B3F5807F08D121
:10304000FB6903F00203002B03D04FF40043BB6283
:103050001FE0FB6903F44073B3F5007F09D11A4BFD
:103060005B6A03F00203002B03D049F64043BB62C6
:103070000FE0FB6903F44073B3F5407F1CD1124BA2
:103080001B6803F40033002B16D04FF22443BB62BD
:1030900012E011E0FFF778FE02460B4B5B689B0BDA
:1030A00003F0030301335B00B2FBF3F3BB6204E004
:1030B00000BF02E000BF00E000BFBB6A1846343723
:1030C000BD4690BD3C3C00080010024000127A0052
:1030D00000093D00ABAAAAAA014B1868704700BFBF
:1030E0000C00002070B500260C4D0D4C641BA41084
:1030F000A64209D100F070FD00260A4D0A4C641B5F
:10310000A410A64205D170BD55F8043B984701367E
:10311000EEE755F8043B98470136F2E7983C000883
:10312000983C0008983C00089C3C00080346024478
:10313000934200D1704703F8011BF9E70EB46FF01A
:10314000004100B59CB01DAB029006900791049120
:103150000848094953F8042B0591006802A9019316
:1031600000F068F80022029B1A701CB05DF804EBB6
:1031700003B070470C0000200802FFFF2DE9F04764
:103180008E6882469E420C4690461F4638D88A89F1
:1031900012F4906F32D0256809690133A5EB01095B
:1031A00065694B4405EB450505EBD5756D109D42F2
:1031B00038BF1D46530531D5294600F06FFB064642
:1031C00050B90C234FF0FF30CAF80030A38943F008
:1031D0004003A381BDE8F0874A46216900F0CEFA9A
:1031E000A38923F4906343F08003A38126614E44B6
:1031F00026603E466561A5EB0905A560BE4200D983
:103200003E4632464146206800F0C6FAA3680020D8
:103210009B1BA360236833442360DBE72A4600F04E
:10322000B1FB06460028E1D15046216900F0CEFAF4
:10323000C7E700002DE9F04F98468B8907461B062B
:103240000D4614469DB00ED50B6963B9402100F0C0
:1032500025FB2860286120B90C233B604FF0FF302C
:10326000D1E040236B610023099320238DF829309E
:1032700030234FF00109CDF80C80DFF8A4818DF8E0
:103280002A3023469A4613F8012B0AB1252AF9D190
:10329000BAEB040B0BD05B46224629463846FFF7B3
:1032A0006DFF013000F0AA80099A5A4409929AF8F9
:1032B0000030002B00F0A28000234FF0FF32CDE958
:1032C00005230AF1010A049307938DF853301A93EA
:1032D0005446052214F8011B514800F041FA049AA3
:1032E000D8B9D00644BF20238DF85330110744BF0E
:1032F0002B238DF853309AF800302A2B15D05446E2
:1033000000204FF00A0C079A214611F8013B303B90
:10331000092B4ED9B0B1079214E0A0EB080309FACB
:1033200003F31343A2460493D2E7039B191D1B68C2
:103330000391002BBBBF5B4242F00202079307934D
:10334000B8BF049223782E2B0CD163782A2B35D169
:10335000039B02341A1D1B680392002BB8BF4FF069
:10336000FF330593DFF8BCA003225046217800F01C
:10337000F7F940B14023A0EB0A0003FA00F0049BE8
:1033800001340343049314F8011B062226488DF8E8
:10339000281000F0E5F9002838D0244B1BBB039B14
:1033A000073323F0070308330393099B334409933E
:1033B00067E70C4601200CFB0232A5E700234FF023
:1033C0000A0C194601340593204610F8012B303AB7
:1033D000092A03D9002BC5D00591C3E70446012370
:1033E0000CFB0121F0E703AB00932A463846104B53
:1033F00004A9AFF30080421C0646D6D1AB895B0618
:103400003FF52CAF09981DB0BDE8F08F03AB0093DA
:103410002A463846064B04A900F07CF8EBE700BFCB
:10342000643C00086A3C00086E3C00080000000094
:103430007D3100082DE9F047164699468A680B69E8
:1034400007469342B8BF1346336091F843200C46B9
:10345000DDF820800AB1013333602368990642BF4A
:10346000336802333360256815F0060506D104F190
:10347000190AE36832689B1AAB4228DC94F84320AF
:10348000131E226818BF012392062DD449463846E0
:1034900004F14302C047013020D02368E56803F0FF
:1034A0000603042B18BF002532684FF00006A368FE
:1034B00008BFAD1A226908BF25EAE5759342C4BF6B
:1034C0009B1AED181A34B5421AD1002008E00123E6
:1034D000524649463846C047013003D14FF0FF30CD
:1034E000BDE8F0870135C4E73020E11881F84300DA
:1034F0005A1C94F845102244023382F84310C5E761
:103500000123224649463846C0470130E6D00136FD
:10351000D9E700002DE9FF470F7E9146782F8046BE
:103520000C469A460C9D01F1430207D8622F0AD837
:10353000002F00F0D980582F00F0A48004F142053C
:1035400084F842703AE0A7F16303152BF6D801A185
:1035500051F823F0AD350008C13500083D350008AD
:103560003D3500083D3500083D350008C1350008EF
:103570003D3500083D3500083D3500083D35000863
:10358000CF360008F1350008B13600083D35000897
:103590003D350008F13600083D350008F1350008DA
:1035A0003D3500083D350008B93600082B681A1D66
:1035B0001B682A6004F1420584F842300123A4E02C
:1035C00020682968060601F104030AD50E682B60FD
:1035D000002E03DA2D23764284F843300A235E4816
:1035E00019E00E6810F0400F2B6018BF36B2EFE7FD
:1035F0002B682068191D2960010601D51E6802E0AC
:103600004606FBD51E886F2F0CBF08230A2352489D
:10361000002184F843106568002DA8BF2168A560CB
:10362000A4BF21F0040121600EB9002D4DD0154634
:10363000B6FBF3F103FB1167C75D05F8017D374663
:10364000BB420E46F4D9082B0BD12368DE0708D500
:10365000236961689942DEBF302305F8013C05F11A
:10366000FF35521B22614B4621464046CDF800A053
:1036700003AAFFF7DFFE01304CD14FF0FF3004B05A
:10368000BDE8F087344881F845702968236851F80F
:10369000046B29601D0614D5DF0744BF43F02003E7
:1036A00023601EB9236823F0200323601023AFE7B3
:1036B000236843F0200323607823284884F84530AA
:1036C000E3E7590648BFB6B2E6E71546BBE72B6805
:1036D0002668181D6169286035061B6801D51960C8
:1036E00002E07006FBD51980002315462361BAE776
:1036F0002B6800211A1D2A601D686268284600F0A8
:103700002FF808B1401B606063682361002384F8D0
:103710004330A8E72A46494640462369D04701304E
:10372000ABD023689B0713D4E068039B9842B8BFD3
:103730001846A4E70123324649464046D0470130A7
:103740009BD00135E36803995B1AAB42F2DCEBE7EF
:10375000002504F11906F5E7753C0008863C0008D1
:10376000034610B5C9B202449342184601D1002065
:1037700003E0047801338C42F6D110BD0A44914233
:1037800000F1FF3300D1704710B511F8014B9142A1
:1037900003F8014FF9D110BD884210B501EB0204C6
:1037A00002D98442234607D8431EA14208D011F80B
:1037B000012B03F8012FF8E7014602448A4200D1A9
:1037C00010BD13F8014D02F8014DF7E738B5054675
:1037D000002940D051F8043C0C1F002BB8BFE4185E
:1037E00000F010F91C4A136833B96360146028466E
:1037F000BDE8384000F00CB9A34208D92068211870
:103800008B4201BF19685B6809182160EDE71A4611
:103810005B680BB1A342FAD911685018A0420BD1D2
:1038200020680144501883421160E0D118685B6839
:10383000014411605360DAE702D90C232B60D6E70C
:10384000206821188B4201BF19685B680918216044
:1038500063605460CBE738BDC400002070B50E4EE5
:103860000C463168054611B900F0BCF830602146BD
:10387000284600F0B7F8431C0AD0C41C24F0030407
:10388000A04207D0211A284600F0ACF8013001D13F
:103890004FF0FF34204670BDC80000202DE9F041F4
:1038A000CD1C25F0030508350C2D38BF0C25002D47
:1038B000074601DBA94205D90C2300263B603046B0
:1038C000BDE8F0812E4E00F09DF833681C4634BBF5
:1038D00029463846FFF7C2FF431C04464DD13468E1
:1038E0002646002E40D123683146384604EB0308B3
:1038F00000F078F880453AD1216803356D1A25F03B
:10390000030508350C2D38BF0C2538462946FFF72E
:10391000A5FF01302BD023682B4423600EE02268E2
:10392000521B1ED40B2A16D96119A342256018BF59
:103930005960636808BF316062514B60384604F1DA
:103940000B0600F065F826F00706231DF21AB6D024
:103950009B1BA350B3E76268A3420CBF32605A605E
:10396000ECE723466468B2E734467668B9E70C238F
:1039700038463B6000F04CF8A1E72560DEE700BF69
:10398000C40000202DE9F041804614460E4621B9BE
:103990001146BDE8F041FFF781BF2AB9FFF716FFD6
:1039A00025462846BDE8F08100F038F884420746F5
:1039B00002D8B4EB500F12D821464046FFF76EFFF5
:1039C00005460028EDD0BC422246314628BF3A4683
:1039D000FFF7D4FE31464046FFF7F8FEE1E73546F3
:1039E000DFE7000038B50023054D044608462B608C
:1039F000FDF774FE431C02D12B6803B1236038BD70
:103A0000CC000020014800F011B800BFD000002019
:103A1000014800F00CB800BFD000002051F8043C71
:103A2000181F002BBCBF0B58C01870477047704759
:103A3000F8B506460F4600F01FF8324604460D461C
:103A40003B4630463946FDF78DF890B900220023F9
:103A500030463946FDF75EF858B1FFF73DFB2123AC
:103A600000220360002310461946FCF70BFF0446B2
:103A70000D4620462946F8BDDFF858C12DE9F04132
:103A80003CEA010C06460D460C460A46074603462C
:103A90000FD102460B46FCF7CBFD02460B463046E3
:103AA0002946FCF70FFC06460D4630462946BDE880
:103AB000F08100290EDC21F0004C5CEA0707F4D00D
:103AC00041B102460B46FCF7FBFB02460B46FCF7F6
:103AD000D9FEE8E7211575D0CC074FF00004C2F3FA
:103AE0001302A1F2FF3742F480125EBFD90F5B00D0
:103AF00001EB4202D90F01EB4202162520464FF49A
:103B000000117F105B0046189642DEBF921B7018B2
:103B100064185200013D02EBD3724FEA51014FEAA3
:103B20004303F0D129464FF0200E4FF00046824269
:103B300006EB050C02DC13D19C4511D8BCF1000F3B
:103B40000CEB060543DA002D41DB00F10108121AE7
:103B500040469C4588BF02F1FF32A3EB0C03314481
:103B60004FEAD37CBEF1010E0CEB42024FEA430355
:103B70004FEA5606DBD1134306D0481C0BBF7146F3
:103B80000131013421F001016310490803F17F5331
:103B9000E20703F5001348BF41F000410E4603EB76
:103BA000075582E7DA0A15385B05002AFAD0D502F4
:103BB0000AD5C1F1200423FA04F44D1E8B402243A0
:103BC000411B89E70846F0E752000131EFE78046E4
:103BD000BDE700BF0000F07FF8B500BFF8BC08BC2F
:103BE0009E467047F8B500BFF8BC08BC9E467047BB
:103BF00025640000504F43494E4A455F52414355AA
:103C00004E414E4A45000000583A0000593A000023
:103C10005A3A00005542525A414E4A45204A453AC6
:103C2000000000006D2F735E3200000002030405E7
:103C3000060708090A0B0C0D0E0F101002030405ED
:103C4000060708090A0B0C0D0E0F101000000000EB
:103C5000000000000102030406070809000000003C
:103C600001020304232D302B2000686C4C00656694
:103C700067454647003031323334353637383941BD
:103C800042434445460030313233343536373839D3
:083C90006162636465660000D7
:043C980035010008EA
:043C9C00110100080A
:103CA0000024F400100000000100000010000020BB
:103CB0000000000000000000000000000000000004
:103CC00000000000000000000000000000000000F4
:103CD00000000000000000000000000000000000E4
:103CE00000000000000000000000000000000000D4
:103CF00000000000000000000000000000000000C4
:103D000000000000000000000000000000000000B3
:040000050800174197
:00000001FF
