:020000040800F2
:1000000000280020711A0008151A00081B1A0008A1
:10001000211A0008271A00082D1A00080000000005
:10002000000000000000000000000000331A00087B
:100030003F1A0008000000004B1A0008571A000879
:10004000B91A0008B91A0008B91A0008B91A000844
:10005000B91A0008B91A0008B91A0008B91A000834
:10006000B91A0008B91A0008B91A0008B91A000824
:10007000B91A0008B91A0008B91A0008B91A000814
:10008000B91A0008B91A0008B91A0008B91A000804
:10009000B91A0008B91A0008B91A0008B91A0008F4
:1000A000B91A0008B91A0008B91A0008B91A0008E4
:1000B000B91A0008B91A000800000000B91A0008AF
:1000C000B91A00080000000000000000B91A00087A
:1000D00000000000B91A0008B91A0008000000006A
:1000E000B91A0008B91A0008B91A0008000000007F
:1000F0000000000000000000000000000000000000
:0C01000000000000000000005FF808F1A3
:1001100010B5054C237833B9044B13B10448AFF341
:1001200000800123237010BD940000200000000017
:10013000702B000808B5034B1BB103490348AFF30C
:10014000008008BD0000000098000020702B00080F
:1001500081F0004102E000BF83F0004330B54FEA78
:1001600041044FEA430594EA050F08BF90EA020FE5
:100170001FBF54EA000C55EA020C7FEA645C7FEA78
:10018000655C00F0E2804FEA5454D4EB5555B8BF9B
:100190006D420CDD2C4480EA020281EA030382EA0C
:1001A000000083EA010180EA020281EA0303362D9E
:1001B00088BF30BD11F0004F4FEA01314FF4801C71
:1001C0004CEA113102D0404261EB410113F0004F83
:1001D0004FEA03334CEA133302D0524263EB43033A
:1001E00094EA050F00F0A780A4F10104D5F1200ED8
:1001F0000DDB02FA0EFC22FA05F2801841F1000133
:1002000003FA0EF2801843FA05F359410EE0A5F106
:1002100020050EF1200E012A03FA0EFC28BF4CF037
:10022000020C43FA05F3C01851EBE37101F00045ED
:1002300007D54FF0000EDCF1000C7EEB00006EEBFA
:100240000101B1F5801F1BD3B1F5001F0CD3490884
:100250005FEA30004FEA3C0C04F101044FEA4452DB
:1002600012F5800F80F09A80BCF1004F08BF5FEA62
:10027000500C50F1000041EB045141EA050130BD42
:100280005FEA4C0C404141EB010111F4801FA4F1E5
:100290000104E9D191F0000F04BF01460020B1FA3A
:1002A00081F308BF2033A3F10B03B3F120020CDA72
:1002B0000C3208DD02F1140CC2F10C0201FA0CF050
:1002C00021FA02F10CE002F11402D8BFC2F1200CB5
:1002D00001FA02F120FA0CFCDCBF41EA0C0190406B
:1002E000E41AA2BF01EB0451294330BD6FEA0404B4
:1002F0001F3C1CDA0C340EDC04F11404C4F120029F
:1003000020FA04F001FA02F340EA030021FA04F3B0
:1003100045EA030130BDC4F10C04C4F1200220FA07
:1003200002F001FA04F340EA0300294630BD21FA45
:1003300004F0294630BD94F0000F83F4801306BF0B
:1003400081F480110134013D4EE77FEA645C18BFFF
:100350007FEA655C29D094EA050F08BF90EA020F96
:1003600005D054EA000C04BF1946104630BD91EA8E
:10037000030F1EBF0021002030BD5FEA545C05D191
:100380004000494128BF41F0004130BD14F58004D0
:100390003CBF01F5801130BD01F0004545F0FE4144
:1003A00041F470014FF0000030BD7FEA645C1ABF79
:1003B000194610467FEA655C1CBF0B46024650EAB0
:1003C000013406BF52EA033591EA030F41F40021DC
:1003D00030BD00BF90F0000F04BF0021704730B562
:1003E0004FF4806404F132044FF000054FF0000137
:1003F00050E700BF90F0000F04BF0021704730B5F8
:100400004FF4806404F1320410F0004548BF4042CC
:100410004FF000013EE700BF42004FEAE2014FEA21
:1004200031014FEA02701FBF12F07F4393F07F4FFC
:1004300081F06051704732F07F4208BF704793F0FF
:100440007F4F04BF41F40021704730B54FF4607412
:1004500001F0004521F000411CE700BF50EA010215
:1004600008BF704730B54FF000050AE050EA0102BE
:1004700008BF704730B511F0004502D5404261EB2E
:1004800041014FF4806404F132045FEA915C3FF46F
:10049000D8AE4FF003025FEADC0C18BF03325FEA0C
:1004A000DC0C18BF033202EBDC02C2F1200300FABD
:1004B00003FC20FA02F001FA03FE40EA0E0021FAE2
:1004C00002F11444BDE600BF70B54FF0FF0C4CF4D0
:1004D000E06C1CEA11541DBF1CEA135594EA0C0F82
:1004E00095EA0C0F00F0DEF82C4481EA030621EABD
:1004F0004C5123EA4C5350EA013518BF52EA0335F8
:1005000041F4801143F4801338D0A0FB02CE4FF0A9
:100510000005E1FB02E506F00042E0FB03E54FF0D9
:100520000006E1FB03569CF0000F18BF4EF0010ED1
:10053000A4F1FF04B6F5007F64F5407404D25FEACD
:100540004E0E6D4146EB060642EAC62141EA555180
:100550004FEAC52040EA5E504FEACE2EB4F1FD0CC2
:1005600088BFBCF5E06F1ED8BEF1004F08BF5FEA40
:10057000500E50F1000041EB045170BD06F00046F2
:1005800046EA010140EA020081EA0301B4EB5C049F
:10059000C2BFD4EB0C0541EA045170BD41F4801197
:1005A0004FF0000E013C00F3AB8014F1360FDEBFBC
:1005B000002001F0004170BDC4F10004203C35DA98
:1005C0000C341BDC04F11404C4F1200500FA05F31B
:1005D00020FA04F001FA05F240EA020001F00042BC
:1005E00021F0004110EBD37021FA04F642EB060132
:1005F0005EEA430E08BF20EAD37070BDC4F10C045C
:10060000C4F1200500FA04F320FA05F001FA04F21F
:1006100040EA020001F0004110EBD37041F100010B
:100620005EEA430E08BF20EAD37070BDC4F1200516
:1006300000FA05F24EEA020E20FA04F301FA05F27E
:1006400043EA020321FA04F001F0004121FA04F226
:1006500020EA020000EBD3705EEA430E08BF20EAF6
:10066000D37070BD94F0000F0FD101F00046400030
:1006700041EB010111F4801F08BF013CF7D041EAB2
:10068000060195F0000F18BF704703F000465200B6
:1006900043EB030313F4801F08BF013DF7D043EA87
:1006A0000603704794EA0C0F0CEA135518BF95EA3D
:1006B0000C0F0CD050EA410618BF52EA4306D1D1C4
:1006C00081EA030101F000414FF0000070BD50EAE3
:1006D000410606BF1046194652EA430619D094EA6D
:1006E0000C0F02D150EA013613D195EA0C0F05D157
:1006F00052EA03361CBF104619460AD181EA0301AB
:1007000001F0004141F0FE4141F470014FF0000062
:1007100070BD41F0FE4141F4780170BD70B54FF0FD
:10072000FF0C4CF4E06C1CEA11541DBF1CEA13557D
:1007300094EA0C0F95EA0C0F00F0A7F8A4EB05045F
:1007400081EA030E52EA03354FEA013100F0888056
:100750004FEA03334FF0805545EA131343EA12631F
:100760004FEA022245EA111545EA10654FEA0026D4
:100770000EF000419D4208BF964244F1FD0404F58D
:10078000407402D25B084FEA3202B61A65EB0305E9
:100790005B084FEA32024FF480104FF4002CB6EBA6
:1007A000020E75EB030E22BFB61A754640EA0C0026
:1007B0005B084FEA3202B6EB020E75EB030E22BF66
:1007C000B61A754640EA5C005B084FEA3202B6EBA7
:1007D000020E75EB030E22BFB61A754640EA9C0066
:1007E0005B084FEA3202B6EB020E75EB030E22BF36
:1007F000B61A754640EADC0055EA060E18D04FEAF4
:10080000051545EA16754FEA06164FEAC30343EA93
:1008100052734FEAC2025FEA1C1CC0D111F4801F60
:100820000BD141EA00014FF000004FF0004CB6E759
:1008300011F4801F04BF01430020B4F1FD0C88BFF8
:10084000BCF5E06F3FF6AFAEB5EB030C04BFB6EB03
:10085000020C5FEA500C50F1000041EB045170BDF6
:100860000EF0004E4EEA113114EB5C04C2BFD4EB23
:100870000C0541EA045170BD41F480114FF0000EA7
:10088000013C90E645EA060E8DE60CEA135594EA23
:100890000C0F08BF95EA0C0F3FF43BAF94EA0C0F26
:1008A0000AD150EA01347FF434AF95EA0C0F7FF49B
:1008B00025AF104619462CE795EA0C0F06D152EAEF
:1008C00003353FF4FDAE1046194622E750EA4106D3
:1008D00018BF52EA43067FF4C5AE50EA41047FF4E4
:1008E0000DAF52EA43057FF4EBAE12E74FF0FF3C49
:1008F00006E000BF4FF0010C02E000BF4FF0010C1A
:100900004DF804CD4FEA410C7FEA6C5C4FEA430C92
:1009100018BF7FEA6C5C1BD001B050EA410C0CBFE1
:1009200052EA430C91EA030F02BF90EA020F002043
:10093000704710F1000F91EA030F58BF994208BFAA
:1009400090422CBFD8176FEAE37040F00100704767
:100950004FEA410C7FEA6C5C02D150EA013C07D1BE
:100960004FEA430C7FEA6C5CD6D152EA033CD3D009
:100970005DF8040B704700BF8446104662468C4603
:100980001946634600E000BF01B5FFF7B7FF002836
:1009900048BF10F1000F01BD4DF808EDFFF7F4FF5F
:1009A0000CBF012000205DF808FB00BF4DF808EDEA
:1009B000FFF7EAFF34BF012000205DF808FB00BF0D
:1009C0004DF808EDFFF7E0FF94BF012000205DF82F
:1009D00008FB00BF4DF808EDFFF7CEFF94BF0120E4
:1009E00000205DF808FB00BF4DF808EDFFF7C4FFDD
:1009F00034BF012000205DF808FB00BF4FEA410C26
:100A00007FEA6C5C02D150EA013C0AD14FEA430C08
:100A10007FEA6C5C02D152EA033C02D14FF0000045
:100A200070474FF0010070474FEA410212F5001283
:100A300015D211D56FF47873B3EB625212D94FEA25
:100A4000C12343F0004343EA505311F0004F23FA0F
:100A500002F018BF404270474FF00000704750EA64
:100A6000013005D111F0004008BF6FF00040704721
:100A70004FF00000704700BF80B500AF084B1B6807
:100A8000074A43F010031360032000F029F90F20F8
:100A900000F008F800F08CFF0023184680BD00BF6E
:100AA0000020024080B582B000AF7860124B1A6817
:100AB000124B1B7819464FF47A73B3FBF1F3B2FB78
:100AC000F3F3184600F033F90346002B01D001235D
:100AD0000EE07B680F2B0AD8002279684FF0FF30B8
:100AE00000F009F9064A7B681360002300E0012347
:100AF00018460837BD4680BD2800002004000020AD
:100B00000000002080B400AF054B1B781A46054B4F
:100B10001B681344034A136000BFBD4680BC704786
:100B200004000020B000002080B400AF024B1B681E
:100B30001846BD4680BC7047B000002080B584B028
:100B400000AF7860FFF7F0FFB8607B68FB60FB6880
:100B5000B3F1FF3F05D0094B1B781A46FB681344DD
:100B6000FB6000BFFFF7E0FF0246BB68D31AFA68DC
:100B70009A42F7D800BF1037BD4680BD0400002060
:100B800080B485B000AF78607B6803F00703FB603A
:100B90000C4BDB68BB60BA684FF6FF031340BB60C9
:100BA000FB681A02BB68134343F0BF6343F400338E
:100BB000BB60044ABB68D36000BF1437BD4680BC2D
:100BC000704700BF00ED00E080B400AF044BDB686D
:100BD0001B0A03F007031846BD4680BC704700BFE0
:100BE00000ED00E080B483B000AF03463960FB71D4
:100BF00097F90730002B0ADB3B68DAB20C4997F90A
:100C000007301201D2B20B4483F800230AE03B689C
:100C1000DAB20849FB7903F00F03043B1201D2B2A8
:100C20000B441A7600BF0C37BD4680BC704700BF2E
:100C300000E100E000ED00E080B489B000AFF860B2
:100C4000B9607A60FB6803F00703FB61FB69C3F1DD
:100C50000703042B28BF0423BB61FB690433062B65
:100C600002D9FB69033B00E000237B614FF0FF32B8
:100C7000BB6902FA03F3DA43BB681A407B699A4006
:100C80004FF0FF317B6901FA03F3D9437B680B40D6
:100C9000134318462437BD4680BC704780B582B0E8
:100CA00000AF78607B68013BB3F1807F01D3012303
:100CB0000FE00A4A7B68013B53600F214FF0FF3081
:100CC000FFF790FF054B00229A60044B07221A6041
:100CD000002318460837BD4680BD00BF10E000E085
:100CE00080B582B000AF78607868FFF749FF00BF39
:100CF0000837BD4680BD80B586B000AF0346B960F9
:100D00007A60FB7300237B61FFF75EFF78617A688E
:100D1000B9687869FFF790FF024697F90F301146DE
:100D20001846FFF75FFF00BF1837BD4680BD80B58E
:100D300082B000AF78607868FFF7B0FF03461846CE
:100D40000837BD4680BD000080B48BB000AF78602E
:100D5000396000237B6200233B6221E101227B6A30
:100D600002FA03F3FB613B681B68FA691340BB613D
:100D7000BA69FB699A4240F010813B685B68122BAC
:100D800034D0122B0DD8022B2BD0022B04D8002BE1
:100D900031D0012B1CD048E0032B43D0112B1BD0AA
:100DA00043E0864A934226D0844A934206D8844A36
:100DB000934220D0834A93421DD036E0824A934228
:100DC00019D0824A934216D0814A934213D02CE024
:100DD0003B68DB683B6228E03B68DB6804333B62CE
:100DE00023E03B68DB6808333B621EE03B68DB685E
:100DF0000C333B6219E03B689B68002B02D1042353
:100E00003B6212E03B689B68012B05D108233B62E3
:100E10007B68FA691A6108E008233B627B68FA691B
:100E20005A6102E000233B6200BFBB69FF2B01D87F
:100E30007B6801E07B6804337B61BB69FF2B02D8D0
:100E40007B6A9B0002E07B6A083B9B003B617B69FD
:100E50001A680F213B6901FA03F3DB431A40396A30
:100E60003B6901FA03F31A437B691A603B685B68CC
:100E700003F08053002B00F09080564B9B69554A3D
:100E800043F001039361534B9B6903F00103BB6083
:100E9000BB68514A7B6A9B08023352F82330FB60DF
:100EA0007B6A03F003039B000F2202FA03F3DB4388
:100EB000FA681340FB607B68484A93420DD07B6818
:100EC000474A934207D07B68464A934201D10223A6
:100ED00004E0032302E0012300E000237A6A02F029
:100EE000030292009340FA681343FB603A497B6A1D
:100EF0009B080233FA6841F823203B685B6803F4DF
:100F00008033002B06D0384B1A683749BB6913432E
:100F10000B6006E0344B1A68BB69DB43324913406F
:100F20000B603B685B6803F40033002B06D02E4B4C
:100F30005A682D49BB6913434B6006E02A4B5A6837
:100F4000BB69DB43284913404B603B685B6803F493
:100F50008013002B06D0244B9A682349BB691343A6
:100F60008B6006E0204B9A68BB69DB431E49134047
:100F70008B603B685B6803F40013002B06D01A4BB0
:100F8000DA681949BB691343CB6006E0164BDA688F
:100F9000BB69DB4314491340CB607B6A01337B623E
:100FA0003B681A687B6A22FA03F3002B7FF4D6AE03
:100FB00000BF2C37BD4680BC704700BF0000211029
:100FC000000011100000121000003110000032105B
:100FD0000000221000100240000001400008014003
:100FE000000C0140001001400004014080B483B0B7
:100FF00000AF78600B467B8013467B707B78002BBC
:1010000003D07A887B681A6103E07B881A047B68C6
:101010001A6100BF0C37BD4680BC704780B586B0F2
:1010200000AF78607B68002B01D101236CE27B6804
:101030001B6803F00103002B00F08780924B5B6874
:1010400003F00C03042B0CD08F4B5B6803F00C03F4
:10105000082B12D18C4B5B6803F48033B3F5803FCF
:101060000BD1894B1B6803F40033002B6CD07B68D9
:101070005B68002B68D1012346E27B685B68B3F5AF
:10108000803F06D1804B1B687F4A43F48033136056
:101090002EE07B685B68002B0CD17B4B1B687A4A87
:1010A00023F480331360784B1B68774A23F4802342
:1010B00013601DE07B685B68B3F5A02F0CD1724B09
:1010C0001B68714A43F4802313606F4B1B686E4AA0
:1010D00043F4803313600BE06B4B1B686A4A23F4C4
:1010E00080331360684B1B68674A23F480231360C6
:1010F0007B685B68002B13D0FFF716FD386108E0B2
:10110000FFF712FD02463B69D31A642B01D9032372
:10111000FAE15D4B1B6803F40033002BF0D014E0C0
:10112000FFF702FD386108E0FFF7FEFC02463B696D
:10113000D31A642B01D90323E6E1534B1B6803F454
:101140000033002BF0D100E000BF7B681B6803F088
:101150000203002B63D04C4B5B6803F00C03002BA5
:101160000BD0494B5B6803F00C03082B1CD1464B9A
:101170005B6803F48033002B16D1434B1B6803F0EC
:101180000203002B05D07B681B69012B01D00123D2
:10119000BAE13D4B1B6823F0F8027B685B69DB001A
:1011A000394913430B603AE07B681B69002B20D060
:1011B000364B01221A60FFF7B7FC386108E0FFF7F1
:1011C000B3FC02463B69D31A022B01D903239BE1EE
:1011D0002D4B1B6803F00203002BF0D02A4B1B6839
:1011E00023F0F8027B685B69DB00274913430B603F
:1011F00015E0264B00221A60FFF796FC386108E0E4
:10120000FFF792FC02463B69D31A022B01D9032354
:101210007AE11D4B1B6803F00203002BF0D17B68C1
:101220001B6803F00803002B3AD07B689B69002BF6
:1012300019D0174B01221A60FFF776FC386108E0DD
:10124000FFF772FC02463B69D31A022B01D9032334
:101250005AE10D4B5B6A03F00203002BF0D0012032
:1012600000F0A8FA1CE00A4B00221A60FFF75CFCB1
:1012700038610FE0FFF758FC02463B69D31A022B96
:1012800008D9032340E100BF0010024000004242A1
:10129000800442429E4B5B6A03F00203002BE9D1BB
:1012A0007B681B6803F00403002B00F0A68000237A
:1012B000FB75974BDB6903F08053002B0DD1944BEA
:1012C000DB69934A43F08053D361914BDB6903F0B0
:1012D0008053BB60BB680123FB758E4B1B6803F416
:1012E0008073002B18D18B4B1B688A4A43F48073A0
:1012F0001360FFF719FC386108E0FFF715FC0246A0
:101300003B69D31A642B01D90323FDE0814B1B6891
:1013100003F48073002BF0D07B68DB68012B06D1CF
:101320007B4B1B6A7A4A43F0010313622DE07B6812
:10133000DB68002B0CD1764B1B6A754A23F0010346
:101340001362734B1B6A724A23F0040313621CE09E
:101350007B68DB68052B0CD16D4B1B6A6C4A43F034
:10136000040313626A4B1B6A694A43F00103136268
:101370000BE0674B1B6A664A23F001031362644B60
:101380001B6A634A23F0040313627B68DB68002B4B
:1013900015D0FFF7C9FB38610AE0FFF7C5FB02462D
:1013A0003B69D31A41F28832934201D90323ABE05F
:1013B000574B1B6A03F00203002BEED014E0FFF73B
:1013C000B3FB38610AE0FFF7AFFB02463B69D31A73
:1013D00041F28832934201D9032395E04C4B1B6ABA
:1013E00003F00203002BEED1FB7D012B05D1484B0E
:1013F000DB69474A23F08053D3617B68DB69002BAC
:1014000000F08180424B5B6803F00C03082B61D035
:101410007B68DB69022B46D13F4B00221A60FFF745
:1014200083FB386108E0FFF77FFB02463B69D31A74
:10143000022B01D9032367E0354B1B6803F00073CF
:10144000002BF0D17B681B6AB3F5803F08D1304B8D
:101450005B6823F400327B689B682D4913434B6023
:101460002B4B5B6823F474127B68196A7B685B6A98
:101470000B43274913434B60274B01221A60FFF7A8
:1014800053FB386108E0FFF74FFB02463B69D31A74
:10149000022B01D9032337E01D4B1B6803F00073B7
:1014A000002BF0D02FE01C4B00221A60FFF73CFB12
:1014B000386108E0FFF738FB02463B69D31A022B7C
:1014C00001D9032320E0124B1B6803F00073002BAB
:1014D000F0D118E07B68DB69012B01D1012313E017
:1014E0000B4B5B68FB60FB6803F480327B681B6A14
:1014F0009A4206D1FB6803F470127B685B6A9A42D9
:1015000001D0012300E0002318461837BD4680BDF6
:1015100000100240007000406000424280B584B07C
:1015200000AF786039607B68002B01D10123D0E0E7
:101530006A4B1B6803F007033A689A4210D9674B5D
:101540001B6823F0070265493B6813430B60634B3C
:101550001B6803F007033A689A4201D00123B8E000
:101560007B681B6803F00203002B20D07B681B689C
:1015700003F00403002B05D0594B5B68584A43F431
:10158000E06353607B681B6803F00803002B05D001
:10159000534B5B68524A43F460535360504B5B6853
:1015A00023F0F0027B689B684D4913434B607B68D6
:1015B0001B6803F00103002B40D07B685B68012BA4
:1015C00007D1474B1B6803F40033002B15D10123CF
:1015D0007FE07B685B68022B07D1414B1B6803F0FF
:1015E0000073002B09D1012373E03D4B1B6803F00E
:1015F0000203002B01D101236BE0394B5B6823F020
:1016000003027B685B68364913434B60FFF78CFA33
:10161000F8600AE0FFF788FA0246FB68D31A41F245
:101620008832934201D9032353E02D4B5B6803F0CA
:101630000C027B685B689B009A42EBD1274B1B68CE
:1016400003F007033A689A4210D2244B1B6823F038
:10165000070222493B6813430B60204B1B6803F0D1
:1016600007033A689A4201D0012332E07B681B6885
:1016700003F00403002B08D0194B5B6823F4E062ED
:101680007B68DB68164913434B607B681B6803F07B
:101690000803002B09D0124B5B6823F460527B686F
:1016A0001B69DB000E4913434B6000F021F8014633
:1016B0000B4B5B681B0903F00F030A4AD35C21FA4A
:1016C00003F3094A1360094B1B681846FFF7EAF950
:1016D000002318461037BD4680BD00BF00200240E1
:1016E000001002409C2B0008280000200000002071
:1016F00090B48AB000AF2A4B3C1D0FCB84E80F009A
:10170000284B1B883B800023FB610023BB61002327
:101710007B6200237B6100233B62234B5B68FB61A0
:10172000FB6903F00C03042B02D0082B03D02DE03F
:101730001E4B3B622DE0FB699B0C03F00F0307F18E
:101740002802134413F8243C7B61FB6903F48033C3
:10175000002B13D0144B5B685B0C03F0010307F103
:101760002802134413F8283CBB617B690F4A02FB33
:1017700003F2BB69B2FBF3F37B6204E07B690C4AC2
:1017800002FB03F37B627B6A3B6202E0074B3B6236
:1017900000BF3B6A18462837BD4690BC704700BF63
:1017A000882B0008982B00080010024000127A00D5
:1017B00000093D0080B485B000AF78600A4B1B681B
:1017C0000A4AA2FB03235B0A7A6802FB03F3FB606D
:1017D00000BFFB685A1EFA60002BF9D100BF143716
:1017E000BD4680BC704700BF28000020D34D62106A
:1017F00090B587B000AF786039603B68013B7B6192
:1018000000233B6134E07869FEF7F4FD03460C46A3
:101810001A4623464FF000004FF0804100F080F957
:1018200003460C4618462146FFF7FEF80346FB60C8
:101830007A68FB681340002B0AD0114A3B6952F8C2
:1018400023309BB2012219460E48FFF7CFFB09E077
:101850000B4A3B6952F823309BB2012219460948D2
:10186000FFF7C4FB7B69013B7B613B6901333B6153
:101870003A693B689A42C6DB00BF1C37BD4690BD43
:10188000080000200008014080B582B000AF0023AE
:101890007B60FFF7F1F800F014F800F053F808212E
:1018A0007868FFF7A5FF7B68FF2B02D100237B60E0
:1018B00002E07B6801337B604FF47A70FFF73EF9FA
:1018C000EDE780B590B000AF07F1180328220021A2
:1018D000184600F01DF93B1D00221A605A609A60FC
:1018E000DA601A610223BB610123BB621023FB6231
:1018F00002237B630023BB634FF4E013FB6307F118
:1019000018031846FFF78AFB0346002B01D000F0AE
:101910004BF80F237B600223BB600023FB604FF476
:1019200080633B6100237B613B1D01211846FFF76B
:10193000F5FD0346002B01D000F036F800BF40371C
:10194000BD4680BD80B586B000AF07F10803002218
:101950001A605A609A60DA60114B9B69104A43F032
:10196000040393610E4B9B6903F004037B607B6867
:101970000022FF210B48FFF739FBFF23BB60012347
:10198000FB6000233B6102237B6107F108031946DA
:101990000448FFF7D9F900BF1837BD4680BD00BF26
:1019A000001002400008014080B400AF72B6FEE7AC
:1019B00080B485B000AF154B9B69144A43F0010316
:1019C0009361124B9B6903F00103BB60BB680F4B33
:1019D000DB690E4A43F08053D3610C4BDB6903F0A3
:1019E00080537B607B680A4B5B68FB60FB6823F07D
:1019F000E063FB60FB6843F08063FB60044AFB68C4
:101A0000536000BF1437BD4680BC704700100240D1
:101A10000000014080B400AFFEE780B400AFFEE7F5
:101A200080B400AFFEE780B400AFFEE780B400AF43
:101A3000FEE780B400AF00BFBD4680BC704780B4F5
:101A400000AF00BFBD4680BC704780B400AF00BF90
:101A5000BD4680BC704780B500AFFFF753F800BFAC
:101A600080BD80B400AF00BFBD4680BC70470000A1
:101A70000C480D490D4A002302E0D458C4500433E9
:101A8000C4188C42F9D30A4A0A4C002301E01360BF
:101A90000432A242FBD3FFF7E4FF00F015F8FFF792
:101AA000F3FE70470000002094000020F82B00088F
:101AB00094000020B4000020FEE70000014B1868ED
:101AC000704700BF2C00002070B500250C4E0D4C57
:101AD000A41BA410A54209D101F04AF800250A4E22
:101AE0000A4CA41BA410A54205D170BD56F82530A0
:101AF00098470135EEE756F8253098470135F2E76B
:101B0000F02B0008F02B0008F02B0008F42B000845
:101B100003460244934200D1704703F8011BF9E7E2
:101B20002DE9F04F8FB01D4680468946144600F0DF
:101B300053F9A14FCDE9000197F900303E460293D9
:101B400001335FD022462B4620462946FEF756FF3A
:101B50008246002856D142464B4640464946FEF74B
:101B60004DFF0390E8B10022002320462946FEF7EE
:101B700013FF002846D00123002204938F4BCDF899
:101B800030A005938E4BCDE90689CDE90A23029B4F
:101B9000CDE90845022B31D004A800F0DDFE38BBAA
:101BA00058E04FF0000A4FF0000B52465B464046AB
:101BB0004946FEF7F1FE002851D052465B462046CA
:101BC0002946FEF7E9FE064608B3012304937B4B42
:101BD000CDE906890593039BCDE908450C93029B4B
:101BE000CDE90AAB002BD7D00022754BCDE90A23F3
:101BF0000C9B1BB1FFF762FF0C9B0360DDE90A340D
:101C0000CDE90034DDE900010FB0BDE8F08F2046DA
:101C1000294600F09BFE0028F4D052465B46204641
:101C20002946FEF7C3FE0028ECD001230493634B42
:101C30000C96059397F90030CDE90689CDE9084562
:101C400013B9CDE90AABA7E700205E49022BCDE925
:101C50000A01A1D1FFF732FF21230360C8E7DDE9C4
:101C6000000100F073FE0290002877D140464946FB
:101C700000F06CFE002871D02046294600F066FE78
:101C800000286BD0DDE9002319461046FEF7B6FEAA
:101C900097F90070494BA0B10122CDE90423029BC2
:101CA000CDE906890C93CDE90845002FC9D05246ED
:101CB0005B4650465946FEF731FD022FCDE90A0139
:101CC000C7E703220C90CDE90423204629460022D1
:101CD0003D4BCDE90845CDE90689FEF7F5FB044605
:101CE0000D4617BB4FF06042384B4046CDE90A2302
:101CF000494652465B46FEF759FE002854D020461E
:101D0000294600F031FE22462B46FEF745FE20B95B
:101D10004FF060422E4BCDE90A2396F90030022B9A
:101D200042D1FFF7CBFE222397E70022294B404602
:101D3000CDE90A23494652465B46FEF737FE0028A6
:101D4000EBD02046294600F00FFE22462B46FEF738
:101D500023FE0028E1D100221A4BDCE70022DDE956
:101D600000010023FEF718FE00283FF44BAF404669
:101D7000494600F0EBFD00283FF444AF20462946D9
:101D800000F0E4FD00283FF43DAF042304930B4B27
:101D9000CDE908450593002300240C930023CDE9E9
:101DA0000689CDE90A34B8E704A800F0D5FD00287B
:101DB0007FF41EAFB5E700BF90000020AC2B0008F9
:101DC0000000F03F0000F0FF0000E03FFFFFEF47A2
:101DD000FFFFEFC70000F07F2DE9F04F91B0CDE994
:101DE0000223DDE9022626F0004555EA02030746F4
:101DF000884600F0B784804B21F000449C4289461D
:101E0000824609DC03D138B9A5420DDC01E09D42D0
:101E100002DC9D420ED16AB104F1404404F5801405
:101E200054EA0A0300F09E84744811B0BDE8F04FF4
:101E300000F094BDB9F1000F53DA714B9D424EDCB6
:101E4000A3F154739D424CDD2B15A3F2FF33142BE9
:101E500028DDC3F1340322FA03F101FA03F39342BC
:101E60003FD101F00101C1F102030093002A5CD1CE
:101E7000614B9D4226D104F1404303F5801353EAA0
:101E80000A0300F06F845F4B9C422CDD002E80F231
:101E90006F844FF0000B4FF0000C5846614611B0B4
:101EA000BDE8F08F002A3ED1C3F1140345FA03F1D7
:101EB00001FA03F3AB4240F0638401F00101C1F188
:101EC00002030093504B9D4214D1002E80F25484A3
:101ED0003A46434600204C49FEF720FC13E002231B
:101EE000C3E70023C1E7002ED3DADDE902B303F133
:101EF000004CD2E7B6F1804F08D13A464346384607
:101F00004146FEF7E1FA83468C46C6E73F4B9E42C8
:101F10000BD1B9F1000F08DB3846414611B0BDE8DE
:101F2000F04F00F063BC002300933846414600F0B8
:101F300009FD83468C46BAF1000F2BD124B1324BF8
:101F400029F040429A4225D1002E07DA5A466346CC
:101F500000202D49FEF7E2FB83468C46B9F1000FC5
:101F60009BDA04F14044009B04F58014234308D11C
:101F70005A46634658466146FEF7EEF802460B465F
:101F8000AAE7009B012B88D158460CF100438346F9
:101F90009C4682E74FEAD97909F1FF330D930D9AF8
:101FA000009B134304D13A46434638464146E3E793
:101FB000174B9D4240F3FE8003F104739D420BDDFD
:101FC000104B9C420EDC002EBFF663AF08A3D3E992
:101FD00000231046194694E70E4B9C42F3DD0A4B52
:101FE0009C4219DD002EF1DC53E700BFAFF3008007
:101FF0009C7500883CE4377E0000F07FAF2B000822
:10200000FFFF3F43FFFFEF3F0000F03F0000E03FD6
:102010000000E041FEFFEF3F61460022604B584662
:10202000FEF79AF854A3D3E9002304460D46FEF7C1
:102030004BFA53A3D3E9002306460F462046294610
:10204000FEF742FA002282468B46564B204629462E
:10205000FEF73AFA02460B464BA1D1E90001FEF722
:102060007BF822462B46FEF72FFA02460B4600204D
:102070004D49FEF771F822462B4680468946204698
:102080002946FEF721FA02460B4640464946FEF72E
:102090001BFA3FA3D3E90023FEF716FA02460B46CC
:1020A00050465946FEF758F802460B4604460D4680
:1020B00030463946FEF752F800208B4682463246BB
:1020C0003B46FEF749F802460B4620462946FEF7F6
:1020D00043F8009B0D9A013B13434FF000030CBFE4
:1020E000324C2F4C0646CDE90034DDE90245002490
:1020F0000F46DDE9020122462B46FEF72DF8524637
:102100005B46FEF7E1F9DDE9022380468946304669
:102110003946FEF7D9F902460B4640464946FEF7D6
:102120001DF822462B468046894650465946FEF702
:10213000CBF904460D460B46024649464046CDE9DA
:102140000245FEF70BF81A4B824699420F460E469F
:1021500040F3E18201F13F4303F5E003034300F064
:10216000DB810DA3D3E90023DDE90001FEF7ACF923
:1021700009A3D3E90023C4E6000000604715F73F38
:1021800044DF5DF80BAE543E555555555555D53F7A
:10219000FE822B654715F73F9C7500883CE4377E2F
:1021A0000000F03F0000D03F0000E03F0000F0BF23
:1021B000FFFF8F40B4F5801F4FF0000208DA584649
:1021C000CD4B6146FEF780F96FF0340283460C4632
:1021D0002315A3F2FF3313440C93C84BC4F3130429
:1021E00044F07F559C4245F4401508DDC44B9C42A9
:1021F00040F35B810C9BA5F5801501330C934FF0E8
:10220000000858462946BF4B4FEAC8094B44D3E95A
:102210000034CDE908341A462346CDE90A01FDF71A
:102220009BFFDDE90A2306460F46DDE90801FDF7BD
:1022300095FF02460B460020B349FEF76FFACDE941
:102240000E0102460B4630463946FEF73DF9CDE910
:102250000601DDE90634CDE90434002300226D10C7
:1022600045F00055049305F50025DDE904AB05EBC9
:1022700088435046594614461D46FEF725F9024646
:102280000B4630463946FDF767FFDDE90823064671
:102290000F4620462946FDF75FFF02460B46DDE963
:1022A0000A01FDF759FF52465B46FEF70DF902465B
:1022B0000B4630463946FDF74FFFDDE90E23FEF7AA
:1022C00003F9DDE90623CDE9080110461946FEF7BA
:1022D000FBF877A3D3E9002304460D46FEF7F4F894
:1022E00075A3D3E90023FDF739FF22462B46FEF7FD
:1022F000EBF873A3D3E90023FDF730FF22462B460A
:10230000FEF7E2F870A3D3E90023FDF727FF22468A
:102310002B46FEF7D9F86EA3D3E90023FDF71EFF85
:1023200022462B46FEF7D0F86BA3D3E90023FDF736
:1023300015FF224606460F462B4620462946FEF745
:10234000C3F802460B4630463946FEF7BDF8044650
:102350000D46DDE9060152465B46FDF7FFFEDDE96D
:102360000823FEF7B1F822462B46FDF7F7FE52464A
:1023700006460F465B4650465946FEF7A5F8002232
:10238000624BCDE90A01FDF7E9FE32463B46FDF717
:10239000E5FE04980D46044602460B465046594653
:1023A000FEF792F8002282468B46584B204629467B
:1023B000FDF7D2FEDDE90A23FDF7CEFE02460B460D
:1023C00030463946FDF7C8FEDDE90623FEF77CF806
:1023D000224606460F46DDE908012B46FEF774F853
:1023E00002460B4630463946FDF7B8FE06460F4614
:1023F00002460B4650465946FDF7B0FE38A3D3E9D6
:10240000002304980D460446FEF75EF85246CDE9D7
:1024100006015B4620462946FDF79EFE02460B4616
:1024200030463946FDF798FE2FA3D3E90023FEF787
:102430004BF82FA3D3E9002306460F462046294632
:10244000FEF742F802460B4630463946FDF786FE57
:102450002F4B4B44D3E90023FDF780FE04460C9834
:102460000D46FDF7C7FF06460F462A4B22464B4452
:10247000D3E900892B46DDE90601FDF76FFE4246F0
:102480004B46FDF76BFE32463B46FDF767FE049870
:1024900032463B4682468B46FDF75EFE42464B4641
:1024A000FDF75AFEDDE906230BE64FF00108A8E62A
:1024B000EF4E454A287ECA3F65DBC9934A86CD3F29
:1024C00001411DA96074D13F4D268F515555D53F0F
:1024D000FFAB6FDBB66DDB3F033333333333E33FA7
:1024E000000000E009C7EE3FFD033ADC09C7EE3FFC
:1024F000F5015B14E02F3EBE000040438E980300C0
:1025000079B60B00B02B00080000F03F0000084037
:10251000D02B0008C02B00089BA3D3E90023404622
:102520004946FDF71BFE2246CDE904012B465046E5
:102530003946FDF711FE02460B46DDE90401FEF7C0
:1025400053FA00287FF40DAEA34A26F000439342CD
:1025500040F303814FF4801A00201B15A3F2FE33D1
:102560004AFA03F33344C3F30A529C4FA2F2FF32F8
:102570001741C3F3130A23EA0701C2F114024AF414
:10258000801A4AFA02FA002E02460B4620462946D5
:10259000B8BFCAF1000AFDF7DFFDCDE90201DDE9B0
:1025A000020142464B46FDF7D9FD79A3D3E900234A
:1025B00000200D460446FDF787FFDDE902230646AD
:1025C0000F4620462946FDF7C7FD02460B4640460A
:1025D0004946FDF7C1FD70A3D3E90023FDF774FF61
:1025E0006FA3D3E900238046894620462946FDF79C
:1025F0006BFF02460B4640464946FDF7AFFD0446D9
:102600000D4602460B4630463946FDF7A7FD3246D9
:102610003B4680468946FDF79FFD02460B46204615
:102620002946FDF799FD424606460F464B46404671
:102630004946FDF749FF5CA3D3E9002304460D4654
:10264000FDF742FF5AA3D3E90023FDF785FD22469B
:102650002B46FDF739FF58A3D3E90023FDF77EFD94
:1026600022462B46FDF730FF55A3D3E90023FDF7A3
:1026700073FD22462B46FDF727FF53A3D3E9002322
:10268000FDF76CFD22462B46FDF71EFF02460B466A
:1026900040464946FDF760FD04460D4602460B469E
:1026A00040464946FDF710FF0022CDE902014FF0F8
:1026B000804320462946FDF74FFD02460B46DDE9E3
:1026C0000201FEF72BF8324604460D463B464046D3
:1026D0004946FDF7F9FE32463B46FDF73FFD02460F
:1026E0000B4620462946FDF737FD42464B46FDF78F
:1026F00033FD02460B4600203949FDF72DFD01EB65
:102700000A54B4F5801F2BDA524600F0B9F9DDE91E
:102710000023FFF7F6BB334B21F000479F427FF7C2
:1027200013AF314B0B4403430BD029A3D3E9002350
:10273000DDE90001FDF7C8FE25A3D3E90023FFF77B
:10274000E0BB22462B46FDF707FD42464B46FEF70F
:1027500041F900283FF4F8AEE7E74FF0000A1EE722
:102760002146D4E74FF0000BDFF874C0FFF795BBAC
:10277000DDE902BCFFF791BB38464146FFF7C3BB1A
:102780000092FFF79FBB00BFFE822B654715973C69
:1027900000000000432EE63FEF39FAFE422EE63FEE
:1027A000396CA80C615C20BED0A4BE726937663E4D
:1027B000F16BD2C541BDBB3E2CDE25AF6A56113F41
:1027C00093BDBE166CC1663F3E5555555555C53F28
:1027D00059F3F8C21F6EA5010000E03FFFFF0F0094
:1027E0000000F03FFFCB904000346F3F544B2DE989
:1027F000F0418B4306460D460A460C460FD1024671
:102800000B46FDF761FE02460B4630462946FDF7B2
:10281000A5FC06460D4630462946BDE8F081002954
:10282000074603460EDC21F0004C5CEA0707F2D0B5
:1028300041B102460B46FDF78FFC02460B46FDF701
:102840006DFFE6E7121574D0A2F2FF32D5074FF004
:102850000005C4F3130448BFD90F44F4801444BFE7
:102860005B0001EB44045110DA0F02EB44042846EC
:1028700016224FF400165B008719A742DEBFB81975
:10288000E41BAD19DF0F013A07EB44044FEA4303A1
:102890004FEA5606F0D14FF0200C96464FF0004616
:1028A000844206EB0E0702DC12D19F4210D8002FA3
:1028B00007EB060E42DABEF1000F3FDB00F1010824
:1028C000241A40469F4288BF04F1FF34DB1B324488
:1028D0006400BCF1010C04EBD3744FEA56064FEAD6
:1028E0004303DDD1234306D0541C0BBF62460132A3
:1028F000013522F001026B105208E80703F17F5303
:1029000003F5001348BF42F0004203EB01551646A1
:1029100081E7DC0A15395B05002CFAD0E6020AD5FE
:10292000C2F1200023FA00F0551E934004434A1BD5
:102930008AE71146F0E764000132EFE78046BFE71F
:102940000000F07F21F000431946704741F000413C
:1029500001F58010C00F704700207047002001492A
:10296000704700BF0000F87FF7B5C1F30A52A2F22A
:10297000FF3CBCF1130F04460D460B4606464FEADA
:10298000D1775ADCBCF1000F2BDA21F00042024370
:1029900023D0C1F313020243564216434B0C360BAD
:1029A00034495B0406F4002646EA030501EBC7013F
:1029B00002462B46D1E9004520462946FDF7CEFBCD
:1029C000CDE90001DDE900012B462246FDF7C4FBFD
:1029D000044621F0004343EAC7752046294603B068
:1029E000F0BD254A42FA0CF211400143F5D05208DD
:1029F00005EA020150EA01060CD04FF48023BCF135
:102A0000130F0CBF4FF00046002625EA020243FADE
:102A10000CF313431749324601EBC707D7E90045CA
:102A200020462946FDF79AFBCDE90001DDE90001CA
:102A300022462B46FDF790FB08E0BCF1330F08DD82
:102A4000BCF5806FC9D10246FDF788FB04460D46F0
:102A5000C3E7A2F213414FF0FF32CA401042BCD08C
:102A6000520810421FBF4FF0804620EA02020E417A
:102A70001643CFE7E02B0008FFFF0F000000000027
:102A8000F8B51646C1F30A5204460D460B4682B904
:102A900021F00043034334D02D4B0022FDF714FDF9
:102AA0002C4B04469E420D460DDA25A3D3E90023A4
:102AB0001CE040F2FF77BA4209D10246FDF74EFB17
:102AC00004460D461DE00B46C1F30A52363A40F269
:102AD000FE7132448A420CDD22462B461AA1D1E90E
:102AE000000100F03BF818A3D3E90023FDF7ECFC4C
:102AF000E6E7002A08DD23F0FF4323F4E00343EA7E
:102B0000025520462946F8BD12F1350F0BDA4CF27A
:102B100050339E4222462B46E0DC09A1D1E9000158
:102B200000F01CF8C1E723F0FF43363223F4E00342
:102B300043EA0255204629460022074BD6E700BF4C
:102B400059F3F8C21F6EA5019C7500883CE4377EDE
:102B500000005043B03CFFFF0000903C30B521F036
:102B6000004203F0004342EA0305294630BD00005D
:102B7000F8B500BFF8BC08BC9E467047F8B500BF6A
:082B8000F8BC08BC9E4670473A
:102B880002030405060708090A0B0C0D0E0F1010A6
:102B98000102000000000000000000000102030420
:102BA80006070809706F7700000000000000F03F7A
:102BB800000000000000F83F0000000000000000D6
:102BC8000000004003B8E23F0000000000000000E1
:102BD80006D0CF43EBFD4C3E000000000000304320
:082BE80000000000000030C3F2
:042BF00035010008A3
:042BF40011010008C3
:102BF80010000000010000008000000040000000FC
:102C08002000000010000000080000000400000080
:102C180002000000010000000024F4003000002041
:102C2800000000000000000000000000000000009C
:102C3800000000000000000000000000000000008C
:102C4800000000000000000000000000000000007C
:102C5800000000000000000000000000000000006C
:102C6800000000000000000000000000000000005C
:102C7800000000000000000000000000000000004C
:042C88000100000047
:0400000508001A7164
:00000001FF
